:100000000C942A000C943C000C943C000C943C0092
:100010000C943C000C943C000C943C000C943C0070
:100020000C943C000C943C000C9495050C943C0002
:100030000C943C000C943C000C943C000C943C0050
:100040000C94E0010C943C000C943C000C943C009B
:100050000C943C0011241FBECFE5D8E0DEBFCDBF1D
:1000600020E0A0E6B0E001C01D92AF36B207E1F794
:100070000E947B060C9442070C940000CF93DF9300
:10008000CDB7DEB787E290E0FC01208187E290E007
:100090002064FC01208387E290E0FC01208187E25C
:1000A00090E02F77FC01208387E290E0FC01208123
:1000B00087E290E02062FC01208386E290E0FC0170
:1000C000208186E290E0287FFC01208386E290E098
:1000D000FC01208186E290E02660FC01208386E21C
:1000E00090E0FC01208186E290E02068FC01208302
:1000F0000000DF91CF910895CF93DF93CDB7DEB7A6
:1001000028970FB6F894DEBF0FBECDBF8E837887D9
:100110006F8319821A821B821C821D8280916B0060
:10012000882309F063C081E080936B0087E290E050
:10013000FC01208187E290E0207EFC01208387E2A1
:1001400090E0FC01308187E290E02E81232BFC01BE
:10015000208386E290E0FC01208186E290E020642A
:10016000FC0120830BC089819A81AB81BC810196FF
:10017000A11DB11D89839A83AB83BC8386E290E085
:10018000FC01808182958F70882F90E08170992783
:10019000892B49F489819A81AB81BC818035934C4C
:1001A000A105B10501F789819A81AB81BC818035B8
:1001B000934CA105B10519F481E08D831AC086E244
:1001C00090E0FC01208186E290E02061FC01208328
:1001D00085E290E0FC018081282F30E08F819885B6
:1001E000FC013183208310926B0003C081E0809377
:1001F0006B008D8128960FB6F894DEBF0FBECDBF81
:10020000DF91CF910895CF93DF9300D000D000D03D
:10021000CDB7DEB78A837C836B835E834D8319827F
:1002200080916B00882309F047C08D819E81892BC6
:1002300021F08B819C81892B19F481E089833EC058
:1002400081E080936B0010926A008B819C81909377
:100250006100809360008D819E8190936300809304
:10026000620087E290E0FC01208187E290E0207E3E
:10027000FC01208387E290E0FC01308187E290E07E
:100280002A81232BFC01208386E290E0FC0120815F
:1002900086E290E02064FC01208386E290E0FC018D
:1002A000208186E290E02860FC01208380916E002E
:1002B000816080936E0002C081E0898389812696E7
:1002C0000FB6F894DEBF0FBECDBFDF91CF9108957A
:1002D000CF93DF9300D00F92CDB7DEB79B838A8395
:1002E00019828A819B81892B19F481E0898361C0FD
:1002F00080916B00882309F05AC081E080936B00E5
:1003000081E080936A008A819B81FC0180819181D8
:1003100090936500809364008A819B81FC018281B7
:10032000938190936800809367008A819B81FC0190
:100330008481809366008A819B81FC0185819681FE
:1003400090936300809362001092690087E290E0CE
:10035000FC01208187E290E0207EFC01208387E27F
:1003600090E0FC0140812091640030916500809113
:100370006900882F90E0820F931FFC01208187E2A3
:1003800090E0242BFC01208386E290E0FC01208198
:1003900086E290E02064FC01208386E290E0FC018C
:1003A000208186E290E02860FC01208302C081E089
:1003B000898389810F900F900F90DF91CF910895DD
:1003C0001F920F920FB60F9211242F933F934F93CA
:1003D0005F936F937F938F939F93AF93BF93EF93AD
:1003E000FF93CF93DF93CDB7DEB780916A00882368
:1003F000F9F485E290E0FC01208180916000909109
:100400006100222F30E0FC013183208310926B00C9
:100410008091620090916300FC01099586E290E072
:10042000FC01208186E290E0277FFC0120835EC0F2
:1004300080916A00813009F059C085E290E0FC01AA
:100440004081209167003091680080916900882F79
:1004500090E0880F991F820F931F242F30E0FC013A
:1004600031832083809169008F5F80936900909130
:10047000690080916600981791F410926B0080914A
:10048000620090916300FC01099586E290E0FC0116
:10049000208186E290E0277FFC01208327C087E24D
:1004A00090E0FC01208187E290E0207EFC01208327
:1004B00087E290E0FC01408120916400309165006A
:1004C00080916900882F90E0820F931FFC012081AA
:1004D00087E290E0242BFC01208386E290E0FC017F
:1004E000208186E290E02860FC0120830000DF91FB
:1004F000CF91FF91EF91BF91AF919F918F917F919C
:100500006F915F914F913F912F910F900FBE0F9080
:100510001F901895CF93DF9300D000D0CDB7DEB7F2
:100520008A836B834C8319828B81883008F0F3C0F7
:100530008C81813009F072C08A81882F90E08430EC
:10054000910509F452C0853091050CF064C08330E8
:100550009105A9F1843091050CF05DC0009719F068
:100560000197B9F058C08BE390E0FC018081482FDF
:100570008B81282F30E081E090E002C0880F991F26
:100580002A95E2F7242F282B8BE390E0FC012083AF
:10059000C4C088E390E0FC018081482F8B81282F24
:1005A00030E081E090E002C0880F991F2A95E2F7C1
:1005B000242F282B88E390E0FC012083AEC085E344
:1005C00090E0FC018081482F8B81282F30E081E072
:1005D00090E002C0880F991F2A95E2F7242F282B5C
:1005E00085E390E0FC01208398C082E390E0FC0169
:1005F0008081482F8B81282F30E081E090E002C07D
:10060000880F991F2A95E2F7242F282B82E390E088
:10061000FC01208382C081E089837FC08C81882394
:1006200009F076C08A81882F90E08430910509F422
:1006300055C0853091050CF068C083309105B9F143
:10064000843091050CF061C0009719F00197C1F05A
:100650005CC08BE390E0FC018081482F8B81282FC8
:1006600030E081E090E002C0880F991F2A95E2F700
:100670008095242F28238BE390E0FC0120834DC03C
:1006800088E390E0FC018081482F8B81282F30E0A7
:1006900081E090E002C0880F991F2A95E2F78095CB
:1006A000242F282388E390E0FC01208336C085E3D3
:1006B00090E0FC018081482F8B81282F30E081E081
:1006C00090E002C0880F991F2A95E2F78095242FA9
:1006D000282385E390E0FC0120831FC082E390E0A3
:1006E000FC018081482F8B81282F30E081E090E051
:1006F00002C0880F991F2A95E2F78095242F28239E
:1007000082E390E0FC01208308C081E0898305C07A
:1007100081E0898302C081E0898389810F900F90F5
:100720000F900F90DF91CF910895CF93DF9300D07A
:100730000F92CDB7DEB78A836B8319828A81882FA7
:1007400090E08430910501F1853091051CF58330EE
:100750009105A1F084309105ECF4009719F0019710
:1007600039F018C08BE390E02B81FC01208315C089
:1007700088E390E02B81FC0120830FC085E390E0AB
:100780002B81FC01208309C082E390E02B81FC01D6
:10079000208303C081E08983000089810F900F903E
:1007A0000F90DF91CF910895CF93DF9300D000D0C9
:1007B0000F92CDB7DEB78A836B835D834C8319823A
:1007C0008C819D81892B09F473C08B81883008F05E
:1007D0006FC08A81882F90E08430910509F44FC062
:1007E000853091050CF060C08330910599F184301B
:1007F00091050CF059C0009719F00197B1F054C061
:1008000089E390E0FC018081882F90E02B81222FEA
:1008100030E002C0959587952A95E2F7282F217040
:100820008C819D81FC01208342C086E390E0FC0125
:100830008081882F90E02B81222F30E002C0959597
:1008400087952A95E2F7282F21708C819D81FC01E4
:1008500020832DC083E390E0FC018081882F90E00D
:100860002B81222F30E002C0959587952A95E2F7DB
:10087000282F21708C819D81FC01208318C080E38A
:1008800090E0FC018081882F90E02B81222F30E0C6
:1008900002C0959587952A95E2F7282F21708C81C3
:1008A0009D81FC01208303C081E08983000002C098
:1008B00081E0898389810F900F900F900F900F90A6
:1008C000DF91CF910895CF93DF93CDB7DEB78FE55A
:1008D00090E0FC0120818FE590E02068FC012083FE
:1008E0000000DF91CF910895CF93DF93CDB7DEB7AE
:1008F0008FE590E0FC0120818FE590E02F77FC01EF
:1009000020830000DF91CF910895CF93DF93CDB77F
:10091000DEB78AE390E0FC01108287E390E028E3F1
:10092000FC01208384E390E027E4FC01208381E341
:1009300090E020E2FC0120838BE390E021E0FC01C9
:10094000208388E390E028E3FC01208385E390E0A6
:10095000FC01108282E390E0FC0110820000DF9134
:10096000CF910895CF93DF93CDB7DEB783E590E0C5
:10097000FC01208183E590E02064FC01208383E575
:1009800090E0FC01208183E590E02860FC01208359
:1009900083E590E0FC01208183E590E02062FC018A
:1009A000208383E590E0FC01208183E590E02F7EA9
:1009B000FC01208383E590E0FC01208183E590E049
:1009C000287FFC01208383E590E0FC01208183E502
:1009D00090E02260FC0120830000DF91CF91089518
:1009E000CF93DF930F92CDB7DEB789838CE590E08C
:1009F0002981FC01208300000F90DF91CF910895A1
:100A0000CF93DF9300D00F92CDB7DEB79B838A835D
:100A100019828A819B81892B39F08A819B819093ED
:100A20006D0080936C0002C081E0898389810F9002
:100A30000F900F90DF91CF910895CF93DF93CDB7B3
:100A4000DEB78FE490E0FC0120818FE490E0206825
:100A5000FC0120838FE490E0FC0120818FE490E092
:100A60002F7BFC0120838FE490E0FC0120818FE448
:100A700090E02E7FFC0120838FE490E0FC01208138
:100A80008FE490E02260FC0120838EE490E0FC0182
:100A900020818EE490E02860FC0120838EE490E0C9
:100AA000FC0120818EE490E02061FC0120838EE433
:100AB00090E0FC0120818EE490E0287FFC012083FF
:100AC0008EE490E0FC0120818EE490E02260FC0145
:100AD00020830000DF91CF910895CF93DF9300D062
:100AE000CDB7DEB79A83898386E490E029813A8185
:100AF000FC013183208300000F900F90DF91CF9194
:100B00000895CF93DF9300D0CDB7DEB79A83898362
:100B10008AE490E029813A81FC013183208300003E
:100B20000F900F90DF91CF9108951F920F920FB603
:100B30000F9211242F933F934F935F936F937F9363
:100B40008F939F93AF93BF93EF93FF93CF93DF93D5
:100B5000CDB7DEB780916C0090916D00892B31F09C
:100B600080916C0090916D00FC0109950000DF916F
:100B7000CF91FF91EF91BF91AF919F918F917F9115
:100B80006F915F914F913F912F910F900FBE0F90FA
:100B90001F901895AF92BF92CF92DF92EF92FF9283
:100BA0000F931F93CF93DF93CDB7DEB7A4970FB604
:100BB000F894DEBF0FBECDBF6D837E838F83988791
:100BC00029873A874B875C87ED86FE860F87188BCF
:100BD000A98ABA8ACB8ADC8A49895A896B897C8935
:100BE0008D859E85AF85B8898A019B01081B190BED
:100BF0002A0B3B0BD901C80189839A83AB83BC8341
:100C000049A95AA96BA97CA98D819E81AF81B8851C
:100C10008A019B01081B190B2A0B3B0B0D8B1E8BAA
:100C20002F8B388F89819A81AB81BC819C01AD016A
:100C30006D897E898F89988D0E94D7066D8F7E8FF2
:100C40008F8F98A38D8D9E8DAF8DB8A189839A8348
:100C5000AB83BC8349855A856B857C858D819E815C
:100C6000AF81B8858A019B01081B190B2A0B3B0B2E
:100C700089819A81AB81BC8189A39AA3ABA3BCA3D0
:100C800069A17AA18BA19CA1A90198010E94E70604
:100C9000DA01C90189839A83AB83BC8349815A8174
:100CA0006B817C818D859E85AF85B889840F951F6A
:100CB000A61FB71F89839A83AB83BC8389819A81DE
:100CC000AB81BC81898F9A8FAB8FBC8F698D7A8DF8
:100CD0008B8D9C8DA4960FB6F894DEBF0FBECDBF52
:100CE000DF91CF911F910F91FF90EF90DF90CF9008
:100CF000BF90AF900895AF92BF92CF92DF92EF92E4
:100D0000FF920F931F93CF93DF93CDB7DEB72A9750
:100D10000FB6F894DEBF0FBECDBF0E9485040E94BF
:100D20003E000E941D050E94630480E29EE40E9432
:100D30006D05CE010596BC0180E00E947C008D818E
:100D40009E81CC01A0E0B0E02B2F2F932A2F2F9370
:100D5000292F2F938F930F2EF0EDAF2EF7E0BF2E9C
:100D6000C12CD12CF02D18EEE12E13E0F12E00E075
:100D700010E02FEF30E040E050E060E070E0CB01A9
:100D80000E94CA050F900F900F900F906F83788785
:100D900089879A878F819885A985BA8589839A835F
:100DA000AB83BC8389819A810E948105C2CFDB011C
:100DB0008F939F930E940607BF91AF91A29F800DD2
:100DC000911DA39F900DB29F900D11240895052EA3
:100DD00097FB1EF400940E94FE0657FD07D00E9468
:100DE000110707FC03D04EF40C94FE065095409575
:100DF000309521953F4F4F4F5F4F089590958095C7
:100E0000709561957F4F8F4F9F4F08950E943307D4
:100E1000A59F900DB49F900DA49F800D911D11244E
:100E20000895A1E21A2EAA1BBB1BFD010DC0AA1F2B
:100E3000BB1FEE1FFF1FA217B307E407F50720F043
:100E4000A21BB30BE40BF50B661F771F881F991FBE
:100E50001A9469F760957095809590959B01AC0107
:100E6000BD01CF010895A29FB001B39FC001A39F10
:100E7000700D811D1124911DB29F700D811D1124D3
:080E8000911D0895F894FFCFC5
:00000001FF
