:100000000C942A000C943F000C943F000C943F0089
:100010000C943F000C943F000C943F000C943F0064
:100020000C943F000C943F000C943F000C943F0054
:100030000C943F000C943F000C943F000C943F0044
:100040000C943F000C943F000C943F000C943F0034
:100050000C943F0011241FBECFE5D8E0DEBFCDBF1A
:1000600010E0A0E6B0E0E8EFF1E102C005900D92EB
:10007000A836B107D9F70E94BC070C94FA080C9473
:100080000000CF93DF93CDB7DEB7C554D1090FB6CB
:10009000F894DEBF0FBECDBF8D8F40E060E083E0FF
:1000A0000E94BB0540E061E083E00E94BB058D8DAE
:1000B000881F8827881F482F67E080E00E94BB05C3
:1000C0008D8D882F90E0082E892F000C881F990BAA
:1000D000000C881F991F8170482F66E080E00E9405
:1000E000BB058D8D882F90E0959587959595879583
:1000F0009595879595958795959587958170482FC6
:1001000065E080E00E94BB058D8D882F90E095957D
:100110008795959587959595879595958795817000
:10012000482F64E080E00E94BB0541E062E083E08C
:100130000E94BB0580E090E0A0E0B0E48F87988B40
:10014000A98BBA8B20E030E04AEF54E46F857889C0
:1001500089899A890E9465086EA37FA388A799A7B9
:100160008EA19FA1A8A5B9A58B8B9C8BAD8BBE8BB7
:1001700020E030E040E85FE36B897C898D899E89CF
:100180000E94DF0788232CF481E090E0988F8F8B0A
:1001900054C020E03FEF4FE757E46B897C898D899D
:1001A0009E890E9460081816D4F520E030E040E2F5
:1001B00051E46F85788989899A890E9465086AA7C0
:1001C0007BA78CA79DA78AA59BA5ACA5BDA58AA347
:1001D0009BA3ACA3BDA36AA17BA18CA19DA10E94FE
:1001E000E4076EA77FA788AB99ABAEA5BFA5B88F74
:1001F000AF8B10C088EC90E09A8F898F898D9A8D93
:100200000197F1F79A8F898F00008F89988D019758
:10021000988F8F8B8F89988D892B61F719C06B8987
:100220007C898D899E890E94E4076AAB7BAB8CAB8D
:100230009DAB8AA99BA9988F8F8B8F89988D9C8F56
:100240008B8F8B8D9C8D0197F1F79C8F8B8F00008E
:1002500040E062E083E00E94BB058D8D882F90E036
:100260009595879595958795959587958170482F54
:1002700067E080E00E94BB058D8D882F90E095950A
:100280008795959587958170482F66E080E00E945C
:10029000BB058D8D882F90E0959587958170482FAF
:1002A00065E080E00E94BB058D8D8170482F64E081
:1002B00080E00E94BB0541E062E083E00E94BB0554
:1002C00080E090E0A0E0B0E489839A83AB83BC83B4
:1002D00020E030E04AEF54E469817A818B819C818F
:1002E0000E9465086EAB7FAB88AF99AF8EA99FA9BE
:1002F000A8ADB9AD8D839E83AF83B88720E030E091
:1003000040E85FE36D817E818F8198850E94DF07E1
:1003100088232CF481E090E09A8789875BC020E0F5
:100320003FEF4FE757E46D817E818F8198850E9472
:10033000600818160CF03CC020E030E040E251E4C8
:1003400069817A818B819C810E9465086AAF7BAF4D
:100350008CAF9DAF8AAD9BADACADBDAD8E8F9F8F89
:10036000A8A3B9A36E8D7F8D88A199A10E94E407EF
:1003700022966CAF7DAF8EAF9FAF2297AEADBFAD73
:10038000BA87A98710C088EC90E09C878B878B8503
:100390009C850197F1F79C878B87000089859A855A
:1003A00001979A87898789859A85892B61F71DC06E
:1003B0006D817E818F8198850E94E40726966CAFBF
:1003C0007DAF8EAF9FAF269724968EAD9FAD2497BD
:1003D0009A87898789859A859E878D878D859E8551
:1003E0000197F1F79E878D87000040E062E083E08F
:1003F0000E94BB050000CB5BDF4F0FB6F894DEBF59
:100400000FBECDBFDF91CF910895CF93DF93CDB7CE
:10041000DEB7C554D1090FB6F894DEBF0FBECDBF0D
:100420008D8F41E060E083E00E94BB0540E061E029
:1004300083E00E94BB058D8D881F8827881F482F69
:1004400067E080E00E94BB058D8D882F90E0082E2C
:10045000892F000C881F990B000C881F991F817031
:10046000482F66E080E00E94BB058D8D882F90E0CC
:100470009595879595958795959587959595879564
:10048000959587958170482F65E080E00E94BB05B7
:100490008D8D882F90E09595879595958795959565
:1004A0008795959587958170482F64E080E00E943C
:1004B000BB0541E062E083E00E94BB0580E090E084
:1004C000A0E0B0E48F87988BA98BBA8B20E030E056
:1004D0004AEF54E46F85788989899A890E94650872
:1004E0006EA37FA388A799A78EA19FA1A8A5B9A550
:1004F0008B8B9C8BAD8BBE8B20E030E040E85FE3C4
:100500006B897C898D899E890E94DF0788232CF462
:1005100081E090E0988F8F8B54C020E03FEF4FE751
:1005200057E46B897C898D899E890E946008181622
:10053000D4F520E030E040E251E46F857889898984
:100540009A890E9465086AA77BA78CA79DA78AA5A0
:100550009BA5ACA5BDA58AA39BA3ACA3BDA36AA183
:100560007BA18CA19DA10E94E4076EA77FA788AB09
:1005700099ABAEA5BFA5B88FAF8B10C088EC90E04B
:100580009A8F898F898D9A8D0197F1F79A8F898F2C
:1005900000008F89988D0197988F8F8B8F89988D08
:1005A000892B61F719C06B897C898D899E890E948E
:1005B000E4076AAB7BAB8CAB9DAB8AA99BA9988FF8
:1005C0008F8B8F89988D9C8F8B8F8B8D9C8D0197B6
:1005D000F1F79C8F8B8F000040E062E083E00E9487
:1005E000BB058D8D882F90E095958795959587957E
:1005F000959587958170482F67E080E00E94BB0544
:100600008D8D882F90E0959587959595879581702C
:10061000482F66E080E00E94BB058D8D882F90E01A
:10062000959587958170482F65E080E00E94BB0515
:100630008D8D8170482F64E080E00E94BB0541E011
:1006400062E083E00E94BB0580E090E0A0E0B0E4BF
:1006500089839A83AB83BC8320E030E04AEF54E483
:1006600069817A818B819C810E9465086EAB7FAB2A
:1006700088AF99AF8EA99FA9A8ADB9AD8D839E8390
:10068000AF83B88720E030E040E85FE36D817E8192
:100690008F8198850E94DF0788232CF481E090E009
:1006A0009A8789875BC020E03FEF4FE757E46D8171
:1006B0007E818F8198850E94600818160CF03CC0DE
:1006C00020E030E040E251E469817A818B819C81B5
:1006D0000E9465086AAF7BAF8CAF9DAF8AAD9BADC2
:1006E000ACADBDAD8E8F9F8FA8A3B9A36E8D7F8D4E
:1006F00088A199A10E94E40722966CAF7DAF8EAFCE
:100700009FAF2297AEADBFADBA87A98710C088EC66
:1007100090E09C878B878B859C850197F1F79C8760
:100720008B87000089859A8501979A8789878985B3
:100730009A85892B61F71DC06D817E818F81988597
:100740000E94E40726966CAF7DAF8EAF9FAF2697D1
:1007500024968EAD9FAD24979A87898789859A853F
:100760009E878D878D859E850197F1F79E878D8762
:10077000000040E062E083E00E94BB050000CB5B2C
:10078000DF4F0FB6F894DEBF0FBECDBFDF91CF9124
:100790000895CF93DF93CDB7DEB7C454D1090FB618
:1007A000F894DEBF0FBECDBF80E090E0A0E2B2E4DF
:1007B0008F87988BA98BBA8B20E030E04AEF54E406
:1007C0006F85788989899A890E9465086DA37EA3BF
:1007D0008FA398A78DA19EA1AFA1B8A58B8B9C8B51
:1007E000AD8BBE8B20E030E040E85FE36B897C8915
:1007F0008D899E890E94DF0788232CF481E090E098
:10080000988F8F8B54C020E03FEF4FE757E46B8900
:100810007C898D899E890E9460081816D4F520E095
:1008200030E040E251E46F85788989899A890E9495
:10083000650869A77AA78BA79CA789A59AA5ABA5E8
:10084000BCA589A39AA3ABA3BCA369A17AA18BA1E0
:100850009CA10E94E4076DA77EA78FA798ABADA5CA
:10086000BEA5B88FAF8B10C088EC90E09A8F898FAF
:10087000898D9A8D0197F1F79A8F898F00008F8962
:10088000988D0197988F8F8B8F89988D892B61F721
:1008900019C06B897C898D899E890E94E40769ABA8
:1008A0007AAB8BAB9CAB89A99AA9988F8F8B8F89D8
:1008B000988D9C8F8B8F8B8D9C8D0197F1F79C8FE2
:1008C0008B8F000082E20E94410041E067E080E0FF
:1008D0000E94BB0540E066E080E00E94BB0540E06E
:1008E00065E080E00E94BB0540E064E080E00E949B
:1008F000BB0541E062E083E00E94BB0580E090E040
:10090000A0E0B0E489839A83AB83BC8320E030E02D
:100910004AEF54E469817A818B819C810E94650849
:100920006DAB7EAB8FAB98AF8DA99EA9AFA9B8ADCB
:100930008D839E83AF83B88720E030E040E85FE39B
:100940006D817E818F8198850E94DF0788232CF43A
:1009500081E090E09A8789875BC020E03FEF4FE716
:1009600057E46D817E818F8198850E9460081816FA
:100970000CF03CC020E030E040E251E469817A8133
:100980008B819C810E94650869AF7AAF8BAF9CAF69
:1009900089AD9AADABADBCAD8D8F9E8FAF8FB8A337
:1009A0006D8D7E8D8F8D98A10E94E40721966CAF8E
:1009B0007DAF8EAF9FAF2197ADADBEADBA87A98792
:1009C00010C088EC90E09C878B878B859C85019775
:1009D000F1F79C878B87000089859A8501979A8714
:1009E000898789859A85892B61F71DC06D817E81F4
:1009F0008F8198850E94E40725966CAF7DAF8EAFFE
:100A00009FAF259723968EAD9FAD23979A878987B1
:100A100089859A859E878D878D859E850197F1F7BB
:100A20009E878D87000040E062E083E00E94BB0566
:100A30008CE00E94410081E00E9441000000CC5BFC
:100A4000DF4F0FB6F894DEBF0FBECDBFDF91CF9161
:100A50000895CF93DF9300D00F92CDB7DEB79B837D
:100A60008A8319820EC08981882F90E02A813B8178
:100A7000820F931FFC0180810E94050289818F5F94
:100A800089838981882F90E02A813B81820F931F7F
:100A9000FC018081882339F7000000000F900F903F
:100AA0000F90DF91CF910895CF93DF9300D000D0C6
:100AB000CDB7DEB78B836C831A828B81882319F4C0
:100AC0008C81898306C08B81813019F48C81805C94
:100AD0008983898180580E94410000000F900F9007
:100AE0000F900F90DF91CF910895CF93DF9300D0B7
:100AF00000D000D00F92CDB7DEB79C838B836D837F
:100B00004E832F831A828D81880F880F880F8A83E6
:100B10008A81805C0E94410019820EC08981882FE1
:100B200090E02B813C81820F931FFC0180810E9409
:100B3000050289818F5F89838981883078F36F818D
:100B40008E810E9454058D810E9405020000279627
:100B50000FB6F894DEBF0FBECDBFDF91CF910895E1
:100B6000CF93DF93CDB7DEB781E30E944100000051
:100B7000DF91CF910895CF93DF9300D000D0CDB710
:100B8000DEB78A836B834C8319828B81883008F0AF
:100B9000F1C08C81813009F071C08A81882F90E08A
:100BA0008430910509F452C0853091050CF064C081
:100BB00083309105A9F1843091050CF05DC0009758
:100BC00019F00197B9F058C08BE390E0FC018081E7
:100BD000482F8B81282F30E081E090E002C0880F01
:100BE000991F2A95E2F7242F282B8BE390E0FC0134
:100BF0002083C2C088E390E0FC018081482F8B8174
:100C0000282F30E081E090E002C0880F991F2A95DC
:100C1000E2F7242F282B88E390E0FC012083ACC06E
:100C200085E390E0FC018081482F8B81282F30E004
:100C300081E090E002C0880F991F2A95E2F7242FE7
:100C4000282B85E390E0FC01208396C082E390E0AE
:100C5000FC018081482F8B81282F30E081E090E0DB
:100C600002C0880F991F2A95E2F7242F282B82E3D0
:100C700090E0FC01208380C019827EC08C81882393
:100C800009F075C08A81882F90E08430910509F4BD
:100C900055C0853091050CF068C083309105B9F1DD
:100CA000843091050CF061C0009719F00197C1F0F4
:100CB0005CC08BE390E0FC018081482F8B81282F62
:100CC00030E081E090E002C0880F991F2A95E2F79A
:100CD0008095242F28238BE390E0FC0120834CC0D7
:100CE00088E390E0FC018081482F8B81282F30E041
:100CF00081E090E002C0880F991F2A95E2F7809565
:100D0000242F282388E390E0FC01208335C085E36D
:100D100090E0FC018081482F8B81282F30E081E01A
:100D200090E002C0880F991F2A95E2F78095242F42
:100D3000282385E390E0FC0120831EC082E390E03D
:100D4000FC018081482F8B81282F30E081E090E0EA
:100D500002C0880F991F2A95E2F78095242F282337
:100D600082E390E0FC01208307C0198205C081E086
:100D7000898302C081E0898389810F900F900F9051
:100D80000F90DF91CF910895CF93DF9300D00F9212
:100D9000CDB7DEB78A836B8319828A81882F90E072
:100DA0008430910501F1853091051CF58330910562
:100DB000A1F084309105ECF4009719F0019739F017
:100DC00018C08BE390E02B81FC01208315C088E3E1
:100DD00090E02B81FC0120830FC085E390E02B8104
:100DE000FC01208309C082E390E02B81FC01208379
:100DF00003C081E08983000089810F900F900F90DC
:100E0000DF91CF910895CF93DF9300D000D00F9260
:100E1000CDB7DEB78A836B835D834C8319828C8167
:100E20009D81892B09F473C08B81883008F06FC0D5
:100E30008A81882F90E08430910509F44FC0853075
:100E400091050CF060C08330910599F184309105D3
:100E50000CF059C0009719F00197B1F054C089E324
:100E600090E0FC018081882F90E02B81222F30E0E0
:100E700002C0959587952A95E2F7282F21708C81DD
:100E80009D81FC01208342C086E390E0FC018081CB
:100E9000882F90E02B81222F30E002C09595879516
:100EA0002A95E2F7282F21708C819D81FC012083F7
:100EB0002DC083E390E0FC018081882F90E02B819E
:100EC000222F30E002C0959587952A95E2F7282FCA
:100ED00021708C819D81FC01208318C080E390E00B
:100EE000FC018081882F90E02B81222F30E002C00E
:100EF000959587952A95E2F7282F21708C819D8101
:100F0000FC01208303C081E08983000002C081E0EE
:100F1000898389810F900F900F900F900F90DF9130
:100F2000CF910895CF93DF93CDB7DEB78AE390E0FA
:100F30002FEFFC01208387E390E0FC01108284E323
:100F400090E027E0FC01208381E390E0FC01108227
:100F50008BE390E0FC01108288E390E0FC011082BA
:100F600085E390E0FC01108282E390E0FC011082B6
:100F70000000DF91CF910895CF93DF93CDB7DEB717
:100F800028970FB6F894DEBF0FBECDBF0E94920720
:100F90000E94C90328E0E0E6F0E0CE010196DC0102
:100FA00001900D922A95E1F782E60E94050220E069
:100FB00041E060E0CE0101960E947505FFCF0E94DE
:100FC000130808F481E008950E943F0888F09F57B5
:100FD00098F0B92F9927B751B0F0E1F0660F771F5D
:100FE000881F991F1AF0BA95C9F714C0B13091F053
:100FF0000E945908B1E008950C945908672F782F82
:101000008827B85F39F0B93FCCF386957795679517
:10101000B395D9F73EF490958095709561957F4F83
:101020008F4F9F4F0895990F0008550FAA0BE0E8C6
:10103000FEEF16161706E807F907C0F0121613069A
:10104000E407F50798F0621B730B840B950B39F4DA
:101050000A2661F0232B242B252B21F408950A2640
:1010600009F4A140A6958FEF811D811D089557FDBC
:101070009058440F551F59F05F3F71F04795880F06
:1010800097FB991F61F09F3F79F08795089512169D
:1010900013061406551FF2CF4695F1DF08C0161649
:1010A00017061806991FF1CF8695710561050894FA
:1010B0000895E894BB2766277727CB0197F9089511
:1010C0000E94130808F48FEF08950E9478080C948A
:1010D000E9080E94DB0838F00E94E20820F095231E
:1010E00011F00C94D2080C94D80811240C945A08CE
:1010F0000E94370870F3959FC1F3950F50E0551F7C
:10110000629FF001729FBB27F00DB11D639FAA275C
:10111000F00DB11DAA1F649F6627B00DA11D661FAB
:10112000829F2227B00DA11D621F739FB00DA11DCC
:10113000621F839FA00D611D221F749F3327A00D86
:10114000611D231F849F600D211D822F762F6A2F22
:1011500011249F5750409AF0F1F088234AF0EE0F87
:10116000FF1FBB1F661F771F881F91505040A9F7B4
:101170009E3F510580F00C94D2080C945A085F3FB2
:10118000E4F3983ED4F3869577956795B795F795F0
:10119000E7959F5FC1F7FE2B880F911D9695879568
:1011A00097F9089597F99F6780E870E060E00895E7
:1011B0009FEF80EC089500240A941616170618066F
:1011C0000906089500240A9412161306140605064B
:1011D0000895092E0394000C11F4882352F0BB0FDC
:1011E00040F4BF2B11F460FF04C06F5F7F4F8F4F3F
:0811F0009F4F0895F894FFCF12
:0811F8000E110E041F04FF009C
:00000001FF
