:100000000C942A000C943F000C943F000C943F0089
:100010000C943F000C943F000C943F000C943F0064
:100020000C943F000C943F000C943F000C943F0054
:100030000C943F000C943F000C943F000C943F0044
:100040000C943F000C943F000C943F000C943F0034
:100050000C943F0011241FBECFE5D8E0DEBFCDBF1A
:1000600010E0A0E6B0E0EEE3F6E002C005900D92ED
:10007000A437B107D9F70E9441000C941D030C94DA
:100080000000CF93DF93CDB7DEB7CE56D1090FB6C0
:10009000F894DEBF0FBECDBF84E390E02FEFDC010C
:1000A0002C9381E390E023E0FC01208384E1E0E6EF
:1000B000F0E0DE015F9601900D928A95E1F784E110
:1000C000E0E6F0E0DE01D39601900D928A95E1F72B
:1000D000198289E08A8342C181E090E09A8F898FFA
:1000E00065C020E03FEF4FE757E46D897E898F8937
:1000F000988D0E94830218160CF046C020E030E074
:1001000040E251E469897A898B899C890E9488023E
:1001100067966CAF7DAF8EAF9FAF679767968CADDC
:100120009DADAEADBFAD67972F968CAF9DAFAEAF17
:10013000BFAF2F972F966CAD7DAD8EAD9FAD2F9736
:100140000E9407026B966CAF7DAF8EAF9FAF6B972F
:100150006996AEADBFAD6997BA8FA98F10C080E91F
:1001600091E09C8F8B8F8B8D9C8D0197F1F79C8FED
:100170008B8F0000898D9A8D01979A8F898F898D39
:100180009A8D892B61F71DC06D897E898F89988D25
:100190000E9407026F966CAF7DAF8EAF9FAF6F97D7
:1001A0006D96EEADFFAD6D97FA8FE98F898D9A8DC3
:1001B0009E8F8D8F8D8D9E8D0197F1F79E8F8D8FE8
:1001C000000082E390E0DC012C9182E390E021606A
:1001D000FC01208382E390E0DC012C9182E390E03B
:1001E0002D7FFC0120838A81882F90E0880F991F42
:1001F0009E012F5F3F4F820F931FC296DC012D910E
:100200003C9185E390E0FC01208380E090E0A0E851
:10021000BFE38B839C83AD83BE8320E030E04AE75D
:1002200055E46B817C818D819E810E948802A3961A
:100230006CAF7DAF8EAF9FAFA397A3968CAD9DADF6
:10024000AEADBFADA3978F839887A987BA8720E00B
:1002500030E040E85FE36F81788589859A850E9468
:10026000020288232CF481E090E09C878B8765C094
:1002700020E03FEF4FE757E46F81788589859A85C5
:100280000E94830218160CF046C020E030E040E2E5
:1002900051E46B817C818D819E810E948802A796AA
:1002A0006CAF7DAF8EAF9FAFA797A7968CAD9DAD7E
:1002B000AEADBFADA7972B968CAF9DAFAEAFBFAF26
:1002C0002B972B966CAD7DAD8EAD9FAD2B970E947D
:1002D0000702AB966CAF7DAF8EAF9FAFAB97A99681
:1002E000AEADBFADA997BC87AB8710C080E991E0E8
:1002F0009E878D878D859E850197F1F79E878D87D7
:1003000000008B859C8501979C878B878B859C85BE
:10031000892B61F71DC06F81788589859A850E9438
:100320000702AF966CAF7DAF8EAF9FAFAF97AD9624
:10033000EEADFFADAD97FC87EB878B859C85988BE9
:100340008F878F8598890197F1F7988B8F870000A9
:1003500089818F5F89838A8181508A8382E390E0DB
:10036000DC012C9182E390E02E7FFC01208382E36C
:1003700090E0DC012C9182E390E02260FC0120837C
:100380008981882F90E0880F991F9E012F5F3F4F32
:10039000820F931F4E96DC012D913C9185E390E0F6
:1003A000FC01208380E090E0A0E8BFE3898B9A8B7A
:1003B000AB8BBC8B20E030E04AE755E469897A8951
:1003C0008B899C890E94880263966CAF7DAF8EAF4B
:1003D0009FAF639763968CAD9DADAEADBFAD639798
:1003E0008D8B9E8BAF8BB88F20E030E040E85FE3D1
:1003F0006D897E898F89988D0E94020288230CF472
:100400006BCE6FCE0E94360208F481E008950E9400
:10041000620288F09F5798F0B92F9927B751B0F032
:10042000E1F0660F771F881F991F1AF0BA95C9F778
:1004300014C0B13091F00E947C02B1E008950C9498
:100440007C02672F782F8827B85F39F0B93FCCF34B
:10045000869577956795B395D9F73EF490958095F5
:10046000709561957F4F8F4F9F4F0895990F0008AA
:10047000550FAA0BE0E8FEEF16161706E807F90776
:10048000C0F012161306E407F50798F0621B730B11
:10049000840B950B39F40A2661F0232B242B252B92
:1004A00021F408950A2609F4A140A6958FEF811D35
:1004B000811D089557FD9058440F551F59F05F3F17
:1004C00071F04795880F97FB991F61F09F3F79F076
:1004D00087950895121613061406551FF2CF4695F8
:1004E000F1DF08C0161617061806991FF1CF86957A
:1004F0007105610508940895E894BB27662777275E
:10050000CB0197F908950E94360208F48FEF089501
:100510000E949B020C940C030E94FE0238F00E9481
:10052000050320F0952311F00C94F5020C94FB02C6
:1005300011240C947D020E945A0270F3959FC1F31E
:10054000950F50E0551F629FF001729FBB27F00D81
:10055000B11D639FAA27F00DB11DAA1F649F6627D6
:10056000B00DA11D661F829F2227B00DA11D621F25
:10057000739FB00DA11D621F839FA00D611D221FDF
:10058000749F3327A00D611D231F849F600D211DC3
:10059000822F762F6A2F11249F5750409AF0F1F046
:1005A00088234AF0EE0FFF1FBB1F661F771F881FAF
:1005B00091505040A9F79E3F510580F00C94F502F0
:1005C0000C947D025F3FE4F3983ED4F386957795D3
:1005D0006795B795F795E7959F5FC1F7FE2B880F55
:1005E000911D9695879597F9089597F99F6780E8EB
:1005F00070E060E008959FEF80EC089500240A9475
:100600001616170618060906089500240A941216ED
:100610001306140605060895092E0394000C11F420
:10062000882352F0BB0F40F4BF2B11F460FF04C0CD
:0E0630006F5F7F4F8F4F9F4F0895F894FFCF5D
:10063E003F0006005B004F0066006D007D004F001E
:04064E007F006F00BA
:00000001FF
