:100000000C942A000C9434000C9434000C943400AA
:100010000C9434000C9434000C9434000C94340090
:100020000C9434000C9434000C9434000C94340080
:100030000C9434000C9434000C9434000C94340070
:100040000C9434000C9434000C9434000C94340060
:100050000C94340011241FBECFE5D8E0DEBFCDBF25
:100060000E94A9020C946E040C940000CF93DF93BD
:1000700000D000D0CDB7DEB78A836B834C83198262
:100080008B81883008F0F3C08C81813009F072C018
:100090008A81882F90E08430910509F452C0853020
:1000A00091050CF064C083309105A9F1843091056D
:1000B0000CF05DC0009719F00197B9F058C08BE3C0
:1000C00090E0FC018081482F8B81282F30E081E077
:1000D00090E002C0880F991F2A95E2F7242F282B61
:1000E0008BE390E0FC012083C4C088E390E0FC0136
:1000F0008081482F8B81282F30E081E090E002C082
:10010000880F991F2A95E2F7242F282B88E390E087
:10011000FC012083AEC085E390E0FC018081482F84
:100120008B81282F30E081E090E002C0880F991F7A
:100130002A95E2F7242F282B85E390E0FC01208309
:1001400098C082E390E0FC018081482F8B81282FAA
:1001500030E081E090E002C0880F991F2A95E2F715
:10016000242F282B82E390E0FC01208382C081E0D1
:1001700089837FC08C81882309F076C08A81882F8B
:1001800090E08430910509F455C0853091050CF05C
:1001900068C083309105B9F1843091050CF061C0DD
:1001A000009719F00197C1F05CC08BE390E0FC016F
:1001B0008081482F8B81282F30E081E090E002C0C1
:1001C000880F991F2A95E2F78095242F28238BE327
:1001D00090E0FC0120834DC088E390E0FC01808129
:1001E000482F8B81282F30E081E090E002C0880FFB
:1001F000991F2A95E2F78095242F282388E390E021
:10020000FC01208336C085E390E0FC018081482F0B
:100210008B81282F30E081E090E002C0880F991F89
:100220002A95E2F78095242F282385E390E0FC01AE
:1002300020831FC082E390E0FC018081482F8B81E6
:10024000282F30E081E090E002C0880F991F2A95A6
:10025000E2F78095242F282382E390E0FC0120839D
:1002600008C081E0898305C081E0898302C081E004
:10027000898389810F900F900F900F90DF91CF911C
:100280000895CF93DF9300D00F92CDB7DEB78A8366
:100290006B8319828A81882F90E08430910501F167
:1002A000853091051CF583309105A1F084309105CE
:1002B000ECF4009719F0019739F018C08BE390E047
:1002C0002B81FC01208315C088E390E02B81FC0189
:1002D00020830FC085E390E02B81FC01208309C0BF
:1002E00082E390E02B81FC01208303C081E08983BD
:1002F000000089810F900F900F90DF91CF910895AA
:10030000CF93DF9300D000D00F92CDB7DEB78A83B2
:100310006B835D834C8319828C819D81892B09F4C9
:1003200073C08B81883008F06FC08A81882F90E07D
:100330008430910509F44FC0853091050CF060C000
:100340008330910599F1843091050CF059C00097E4
:1003500019F00197B1F054C089E390E0FC0180816D
:10036000882F90E02B81222F30E002C09595879551
:100370002A95E2F7282F21708C819D81FC01208332
:1003800042C086E390E0FC018081882F90E02B81C1
:10039000222F30E002C0959587952A95E2F7282F05
:1003A00021708C819D81FC0120832DC083E390E02E
:1003B000FC018081882F90E02B81222F30E002C049
:1003C000959587952A95E2F7282F21708C819D813C
:1003D000FC01208318C080E390E0FC018081882F1D
:1003E00090E02B81222F30E002C0959587952A95C9
:1003F000E2F7282F21708C819D81FC01208303C0AE
:1004000081E08983000002C081E0898389810F90A7
:100410000F900F900F900F90DF91CF910895CF9391
:10042000DF93CDB7DEB78AE390E021E0FC012083C3
:1004300087E390E020E4FC01208384E390E0FC016A
:10044000108281E390E0FC0110828BE390E0FC01DC
:10045000108288E390E0FC01108285E390E0FC01CB
:10046000108282E390E0FC0110820000DF91CF91C6
:100470000895CF93DF93CDB7DEB78DE290E0FC0116
:1004800020818DE290E02061FC0120838DE290E0EC
:10049000FC0120818DE290E02064FC0120838DE24C
:1004A00090E0FC0120818DE290E02160FC0120833E
:1004B0008DE290E0FC0120818DE290E02D7FFC0137
:1004C00020838EE290E0FC0120818EE290E02160AA
:1004D000FC0120830000DF91CF910895CF93DF933B
:1004E000CDB7DEB78DE290E0FC0120818DE290E097
:1004F0002F7EFC0120838DE290E0FC0120818DE2C3
:1005000090E02064FC0120830000DF91CF910895EA
:10051000CF93DF930F92CDB7DEB789838FE290E060
:100520002981FC01208300008EE290E0FC018081A3
:10053000881F8827881F882F90E081709927892B32
:1005400099F38FE290E0FC0180810F90DF91CF91D1
:100550000895CF93DF93CDB7DEB7A3970FB6F89486
:10056000DEBF0FBECDBF0E940F020E946E028AE066
:100570000E948802898380E090E0A0E2B1E48A834F
:100580009B83AC83BD8320E030E04AEF54E46A8172
:100590007B818C819D810E94D9036C8B7D8B8E8B9E
:1005A0009F8B8C899D89AE89BF898E839F83A88705
:1005B000B98720E030E040E85FE36E817F81888585
:1005C00099850E94530388232CF481E090E09B8757
:1005D0008A8754C020E03FEF4FE757E46E817F8168
:1005E000888599850E94D4031816D4F520E030E060
:1005F00040E251E46A817B818C819D810E94D90314
:10060000688F798F8A8F9B8F888D998DAA8DBB8DEE
:10061000888B998BAA8BBB8B688979898A899B89FE
:100620000E9458036C8F7D8F8E8F9F8FAC8DBD8DF8
:10063000BB87AA8710C088EC90E09D878C878C854B
:100640009D850197F1F79D878C8700008A859B85A2
:1006500001979B878A878A859B85892B61F719C0BB
:100660006E817F81888599850E94580368A379A34C
:100670008AA39BA388A199A19B878A878A859B854A
:100680009F878E878E859F850197F1F79F878E873D
:1006900000008981813009F06ACF41E060E080E0AC
:1006A0000E94360064CF0E94870308F481E0089519
:1006B0000E94B30388F09F5798F0B92F9927B7513C
:1006C000B0F0E1F0660F771F881F991F1AF0BA95F6
:1006D000C9F714C0B13091F00E94CD03B1E0089584
:1006E0000C94CD03672F782F8827B85F39F0B93F76
:1006F000CCF3869577956795B395D9F73EF49095A9
:100700008095709561957F4F8F4F9F4F0895990FFA
:100710000008550FAA0BE0E8FEEF16161706E807CB
:10072000F907C0F012161306E407F50798F0621BEC
:10073000730B840B950B39F40A2661F0232B242BC1
:10074000252B21F408950A2609F4A140A6958FEFE0
:10075000811D811D089557FD9058440F551F59F074
:100760005F3F71F04795880F97FB991F61F09F3F9E
:1007700079F087950895121613061406551FF2CFC7
:100780004695F1DF08C0161617061806991FF1CF17
:1007900086957105610508940895E894BB2766273E
:1007A0007727CB0197F908950E94870308F48FEF0C
:1007B00008950E94EC030C945D040E944F0438F0ED
:1007C0000E94560420F0952311F00C9446040C94DA
:1007D0004C0411240C94CE030E94AB0370F3959F3C
:1007E000C1F3950F50E0551F629FF001729FBB2728
:1007F000F00DB11D639FAA27F00DB11DAA1F649FC4
:100800006627B00DA11D661F829F2227B00DA11D76
:10081000621F739FB00DA11D621F839FA00D611DFC
:10082000221F749F3327A00D611D231F849F600D1D
:10083000211D822F762F6A2F11249F5750409AF046
:10084000F1F088234AF0EE0FFF1FBB1F661F771FD2
:10085000881F91505040A9F79E3F510580F00C949D
:1008600046040C94CE035F3FE4F3983ED4F38695A0
:1008700077956795B795F795E7959F5FC1F7FE2B3D
:10088000880F911D9695879597F9089597F99F6719
:1008900080E870E060E008959FEF80EC0895002408
:1008A0000A941616170618060906089500240A94D5
:1008B00012161306140605060895092E0394000C5B
:1008C00011F4882352F0BB0F40F4BF2B11F460FFEA
:1008D00004C06F5F7F4F8F4F9F4F0895F894FFCFF5
:00000001FF
