:100000000C942A000C9447000C9447000C94470071
:100010000C9447000C9447000C9447000C94470044
:100020000C9447000C9447000C9447000C94470034
:100030000C9447000C9447000C9447000C94470024
:100040000C94EB010C9447000C9447000C9447006F
:100050000C94470011241FBECFE5D8E0DEBFCDBF12
:1000600010E0A0E6B0E0EEECF9E002C005900D92E1
:10007000A836B107D9F720E0A8E6B0E001C01D928C
:10008000A837B207E1F70E94B8040C94E5040C9479
:100090000000CF93DF93CDB7DEB787E290E0FC019D
:1000A000208187E290E02064FC01208387E290E0D9
:1000B000FC01208187E290E02F77FC01208387E21A
:1000C00090E0FC01208187E290E02062FC01208327
:1000D00086E290E0FC01208186E290E0287FFC012E
:1000E000208386E290E0FC01208186E290E0266099
:1000F000FC01208386E290E0FC01208186E290E012
:100100002068FC0120830000DF91CF910895CF93F8
:10011000DF93CDB7DEB728970FB6F894DEBF0FBEDA
:10012000CDBF8E8378876F8319821A821B821C82CF
:100130001D8280917300882309F063C081E0809361
:10014000730087E290E0FC01208187E290E0207E4E
:10015000FC01208387E290E0FC01308187E290E09F
:100160002E81232BFC01208386E290E0FC0120817C
:1001700086E290E02064FC0120830BC089819A8193
:10018000AB81BC810196A11DB11D89839A83AB838C
:10019000BC8386E290E0FC01808182958F70882F7D
:1001A00090E081709927892B49F489819A81AB81EC
:1001B000BC818035934CA105B10501F789819A81F5
:1001C000AB81BC818035934CA105B10519F481E068
:1001D0008D831AC086E290E0FC01208186E290E0E7
:1001E0002061FC01208385E290E0FC018081282FC2
:1001F00030E08F819885FC01318320831092730059
:1002000003C083E0809373008D8128960FB6F89425
:10021000DEBF0FBECDBFDF91CF910895CF93DF93A7
:1002200000D000D000D0CDB7DEB78A837C836B834B
:100230005E834D83198280917300882309F047C043
:100240008D819E81892B21F08B819C81892B19F4D2
:1002500082E089833EC081E0809373001092720037
:100260008B819C8190936900809368008D819E8131
:1002700090936B0080936A0087E290E0FC012081FC
:1002800087E290E0207EFC01208387E290E0FC0181
:10029000308187E290E02A81232BFC01208386E2D3
:1002A00090E0FC01208186E290E02064FC01208344
:1002B00086E290E0FC01208186E290E02860FC016B
:1002C00020838091740081608093740002C083E079
:1002D0008983898126960FB6F894DEBF0FBECDBF05
:1002E000DF91CF910895CF93DF9300D00F92CDB7D8
:1002F000DEB79B838A8319828A819B81892B19F4BB
:1003000082E0898361C080917300882309F05AC01C
:1003100081E08093730081E0809372008A819B81E9
:10032000FC018081918190936D0080936C008A81A3
:100330009B81FC01828193819093700080936F0078
:100340008A819B81FC01848180936E008A819B81DC
:10035000FC018581968190936B0080936A001092D6
:10036000710087E290E0FC01208187E290E0207E2E
:10037000FC01208387E290E0FC01408120916C0029
:1003800030916D0080917100882F90E0820F931F53
:10039000FC01208187E290E0242BFC01208386E28F
:1003A00090E0FC01208186E290E02064FC01208343
:1003B00086E290E0FC01208186E290E02860FC016A
:1003C000208302C083E0898389810F900F900F9072
:1003D000DF91CF9108951F920F920FB60F921124C3
:1003E0002F933F934F935F936F937F938F939F933D
:1003F000AF93BF93EF93FF93CF93DF93CDB7DEB768
:10040000809172008823F9F485E290E0FC0120815C
:100410008091680090916900222F30E0FC013183C7
:1004200020831092730080916A0090916B00FC0110
:10043000099586E290E0FC01208186E290E0277F2A
:10044000FC0120835EC080917200813009F059C0A8
:1004500085E290E0FC01408120916F0030917000B6
:1004600080917100882F90E0880F991F820F931F51
:10047000242F30E0FC0131832083809171008F5F55
:10048000809371009091710080916E00981791F4A3
:100490001092730080916A0090916B00FC010995A5
:1004A00086E290E0FC01208186E290E0277FFC015B
:1004B000208327C087E290E0FC01208187E290E062
:1004C000207EFC01208387E290E0FC0140812091A6
:1004D0006C0030916D0080917100882F90E0820F48
:1004E000931FFC01208187E290E0242BFC012083F4
:1004F00086E290E0FC01208186E290E02860FC0129
:1005000020830000DF91CF91FF91EF91BF91AF91D8
:100510009F918F917F916F915F914F913F912F911B
:100520000F900FBE0F901F901895CF93DF9300D0C0
:1005300000D0CDB7DEB78A836B834C8319828B8161
:10054000883008F0F1C08C81813009F071C08A8157
:10055000882F90E08430910509F452C085309105D0
:100560000CF064C083309105A9F1843091050CF042
:100570005DC0009719F00197B9F058C08BE390E087
:10058000FC018081482F8B81282F30E081E090E0B2
:1005900002C0880F991F2A95E2F7242F282B8BE39E
:1005A00090E0FC012083C2C088E390E0FC018081E0
:1005B000482F8B81282F30E081E090E002C0880F27
:1005C000991F2A95E2F7242F282B88E390E0FC015D
:1005D0002083ACC085E390E0FC018081482F8B81B3
:1005E000282F30E081E090E002C0880F991F2A9503
:1005F000E2F7242F282B85E390E0FC01208396C0AE
:1006000082E390E0FC018081482F8B81282F30E02D
:1006100081E090E002C0880F991F2A95E2F7242F0D
:10062000282B82E390E0FC01208380C019827EC0E9
:100630008C81882309F075C08A81882F90E08430EE
:10064000910509F455C0853091050CF068C08330E0
:100650009105B9F1843091050CF061C0009719F053
:100660000197C1F05CC08BE390E0FC018081482FD2
:100670008B81282F30E081E090E002C0880F991F25
:100680002A95E2F78095242F28238BE390E0FC0144
:1006900020834CC088E390E0FC018081482F8B814F
:1006A000282F30E081E090E002C0880F991F2A9542
:1006B000E2F78095242F282388E390E0FC01208333
:1006C00035C085E390E0FC018081482F8B81282F85
:1006D00030E081E090E002C0880F991F2A95E2F790
:1006E0008095242F282385E390E0FC0120831EC001
:1006F00082E390E0FC018081482F8B81282F30E03D
:1007000081E090E002C0880F991F2A95E2F780955A
:10071000242F282382E390E0FC01208307C0198264
:1007200005C081E0898302C081E0898389810F90BF
:100730000F900F900F90DF91CF910895CF93DF939B
:1007400000D00F92CDB7DEB78A836B8319828A817E
:10075000882F90E08430910501F1853091051CF5DA
:1007600083309105A1F084309105ECF4009719F0E5
:10077000019739F018C08BE390E02B81FC012083B6
:1007800015C088E390E02B81FC0120830FC085E336
:1007900090E02B81FC01208309C082E390E02B8153
:1007A000FC01208303C081E08983000089810F90D0
:1007B0000F900F90DF91CF910895CF93DF9300D0EA
:1007C00000D00F92CDB7DEB78A836B835D834C83F5
:1007D00019828C819D81892B09F473C08B818830AB
:1007E00008F06FC08A81882F90E08430910509F469
:1007F0004FC0853091050CF060C08330910599F1B0
:10080000843091050CF059C0009719F00197B1F0B0
:1008100054C089E390E0FC018081882F90E02B8117
:10082000222F30E002C0959587952A95E2F7282F70
:1008300021708C819D81FC01208342C086E390E081
:10084000FC018081882F90E02B81222F30E002C0B4
:10085000959587952A95E2F7282F21708C819D81A7
:10086000FC0120832DC083E390E0FC018081882F70
:1008700090E02B81222F30E002C0959587952A9534
:10088000E2F7282F21708C819D81FC01208318C004
:1008900080E390E0FC018081882F90E02B81222F63
:1008A00030E002C0959587952A95E2F7282F2170B0
:1008B0008C819D81FC01208303C081E0898300003D
:1008C00002C081E0898389810F900F900F900F9073
:1008D0000F90DF91CF910895CF93DF93CDB7DEB71F
:1008E0008FE590E0FC0120818FE590E02068FC011D
:1008F00020830000DF91CF910895CF93DF93CDB790
:10090000DEB78FE590E0FC0120818FE590E02F7746
:10091000FC0120830000DF91CF910895CF93DF93F6
:10092000CDB7DEB78AE390E021E0FC01208387E3C6
:1009300090E0FC01108284E390E02FEFFC01208323
:1009400081E390E0FC0110828BE390E0FC011082D7
:1009500088E390E0FC01108285E390E0FC011082C6
:1009600082E390E0FC0110820000DF91CF910895B6
:10097000CF93DF93CDB7DEB70E948E040E9449006B
:100980000E946C04FDCFCF93DF93CDB7DEB780918B
:10099000760090917700482F60E080E00E949502F9
:1009A0000000DF91CF910895CF93DF93CDB7DEB7ED
:1009B0008091760090917700482F60E080E00E945F
:0E09C00095020000DF91CF910895F894FFCFCB
:0809CE00000102600075000346
:00000001FF
