:100000000C942A000C9434000C9434000C943400AA
:100010000C9434000C9434000C9434000C94340090
:100020000C9434000C9434000C9434000C94340080
:100030000C9434000C9434000C9434000C94340070
:100040000C9434000C9434000C9434000C94340060
:100050000C94340011241FBECFE5D8E0DEBFCDBF25
:100060000E9437020C944D060C940000CF93DF934E
:1000700000D000D0CDB7DEB78A836B834C83198262
:100080008B81883008F0F1C08C81813009F071C01B
:100090008A81882F90E08430910509F452C0853020
:1000A00091050CF064C083309105A9F1843091056D
:1000B0000CF05DC0009719F00197B9F058C08BE3C0
:1000C00090E0FC018081482F8B81282F30E081E077
:1000D00090E002C0880F991F2A95E2F7242F282B61
:1000E0008BE390E0FC012083C2C088E390E0FC0138
:1000F0008081482F8B81282F30E081E090E002C082
:10010000880F991F2A95E2F7242F282B88E390E087
:10011000FC012083ACC085E390E0FC018081482F86
:100120008B81282F30E081E090E002C0880F991F7A
:100130002A95E2F7242F282B85E390E0FC01208309
:1001400096C082E390E0FC018081482F8B81282FAC
:1001500030E081E090E002C0880F991F2A95E2F715
:10016000242F282B82E390E0FC01208380C0198299
:100170007EC08C81882309F075C08A81882F90E029
:100180008430910509F455C0853091050CF068C0A4
:1001900083309105B9F1843091050CF061C000976E
:1001A00019F00197C1F05CC08BE390E0FC01808105
:1001B000482F8B81282F30E081E090E002C0880F2B
:1001C000991F2A95E2F78095242F28238BE390E04E
:1001D000FC0120834CC088E390E0FC018081482F23
:1001E0008B81282F30E081E090E002C0880F991FBA
:1001F0002A95E2F78095242F282388E390E0FC01DC
:10020000208335C085E390E0FC018081482F8B81FD
:10021000282F30E081E090E002C0880F991F2A95D6
:10022000E2F78095242F282385E390E0FC012083CA
:100230001EC082E390E0FC018081482F8B81282F33
:1002400030E081E090E002C0880F991F2A95E2F724
:100250008095242F282382E390E0FC01208307C0AF
:10026000198205C081E0898302C081E08983898188
:100270000F900F900F900F90DF91CF910895CF9333
:10028000DF9300D00F92CDB7DEB78A836B831982DC
:100290008A81882F90E08430910501F185309105A5
:1002A0001CF583309105A1F084309105ECF40097A2
:1002B00019F0019739F018C08BE390E02B81FC0115
:1002C000208315C088E390E02B81FC0120830FC0C0
:1002D00085E390E02B81FC01208309C082E390E05C
:1002E0002B81FC01208303C081E089830000898188
:1002F0000F900F900F90DF91CF910895CF93DF93E0
:1003000000D000D00F92CDB7DEB78A836B835D83B8
:100310004C8319828C819D81892B09F473C08B8158
:10032000883008F06FC08A81882F90E08430910572
:1003300009F44FC0853091050CF060C08330910501
:1003400099F1843091050CF059C0009719F001978C
:10035000B1F054C089E390E0FC018081882F90E0E7
:100360002B81222F30E002C0959587952A95E2F7E0
:10037000282F21708C819D81FC01208342C086E35F
:1003800090E0FC018081882F90E02B81222F30E0CB
:1003900002C0959587952A95E2F7282F21708C81C8
:1003A0009D81FC0120832DC083E390E0FC018081CE
:1003B000882F90E02B81222F30E002C09595879501
:1003C0002A95E2F7282F21708C819D81FC012083E2
:1003D00018C080E390E0FC018081882F90E02B81A1
:1003E000222F30E002C0959587952A95E2F7282FB5
:1003F00021708C819D81FC01208303C081E0898371
:10040000000002C081E0898389810F900F900F90D6
:100410000F900F90DF91CF910895CF93DF93CDB7D9
:10042000DEB78AE390E023E0FC01208387E390E0DD
:10043000FC01108284E390E02FEFFC01208381E334
:1004400090E0FC0110828BE390E0FC01108288E3D5
:1004500090E0FC01108285E390E0FC01108282E3D1
:1004600090E0FC0110820000DF91CF910895CF93BE
:10047000DF93CDB7DEB7C958D1090FB6F894DEBF08
:100480000FBECDBF0E940D021982E7C241E060E0BD
:1004900083E00E94360040E061E083E00E94360085
:1004A00040E060E083E00E94360040E061E083E0ED
:1004B0000E94360080E090E0A0EAB1E48CA79DA7FE
:1004C000AEA7BFA720E030E04AE755E46CA57DA5C4
:1004D0008EA59FA50E94B8052E966CAF7DAF8EAFFE
:1004E0009FAF2E972E968CAD9DADAEADBFAD2E9726
:1004F00088AB99ABAAABBBAB20E030E040E85FE350
:1005000068A979A98AA99BA90E94320588232CF49D
:1005100081E090E09DAB8CAB65C020E03FEF4FE702
:1005200057E468A979A98AA99BA90E94B30518165E
:100530000CF046C020E030E040E251E46CA57DA51F
:100540008EA59FA50E94B80562966CAF7DAF8EAF59
:100550009FAF629762968CAD9DADAEADBFAD629719
:100560002A968CAF9DAFAEAFBFAF2A972A966CADDF
:100570007DAD8EAD9FAD2A970E94370566966CAF14
:100580007DAF8EAF9FAF66976496AEADBFAD6497FB
:10059000BDABACAB10C080E991E09FAB8EAB8EA938
:1005A0009FA90197F1F79FAB8EAB00008CA99DA985
:1005B00001979DAB8CAB8CA99DA9892B61F71DC0C0
:1005C00068A979A98AA99BA90E9437056A966CAF88
:1005D0007DAF8EAF9FAF6A9768968EAD9FAD6897DF
:1005E0009DAB8CAB8CA99DA999AF88AF88AD99AD17
:1005F0000197F1F799AF88AF000040E060E083E039
:100600000E94360041E061E083E00E94360040E055
:1006100060E083E00E94360040E061E083E00E94F9
:10062000360080E090E0A0EAB1E48E8F9F8FA8A30F
:10063000B9A320E030E04AE755E46E8D7F8D88A1B4
:1006400099A10E94B8056E966CAF7DAF8EAF9FAF3B
:100650006E976E968CAD9DADAEADBFAD6E978AA315
:100660009BA3ACA3BDA320E030E040E85FE36AA118
:100670007BA18CA19DA10E94320588232CF481E0EE
:1006800090E09FA38EA365C020E03FEF4FE757E4C3
:100690006AA17BA18CA19DA10E94B30518160CF044
:1006A00046C020E030E040E251E46E8D7F8D88A1AD
:1006B00099A10E94B805A2966CAF7DAF8EAF9FAF97
:1006C000A297A2968CAD9DADAEADBFADA29726967A
:1006D0008CAF9DAFAEAFBFAF269726966CAD7DAD0C
:1006E0008EAD9FAD26970E943705A6966CAF7DAF65
:1006F0008EAF9FAFA697A496AEADBFADA497BFA394
:10070000AEA310C080E991E099A788A788A599A514
:100710000197F1F799A788A700008EA19FA10197E3
:100720009FA38EA38EA19FA1892B61F71DC06AA1F3
:100730007BA18CA19DA10E943705AA966CAF7DAFCD
:100740008EAF9FAFAA97A8968EAD9FADA8979FA397
:100750008EA38EA19FA19BA78AA78AA59BA501977F
:10076000F1F79BA78AA7000040E060E083E00E94C9
:10077000360040E061E083E00E94360041E060E046
:1007800083E00E94360040E061E083E00E94360092
:1007900080E090E0A0EAB1E4888B998BAA8BBB8BB8
:1007A00020E030E04AE755E4688979898A899B89A5
:1007B0000E94B805AE966CAF7DAF8EAF9FAFAE977F
:1007C000AE968CAD9DADAEADBFADAE978C8B9D8B17
:1007D000AE8BBF8B20E030E040E85FE36C897D8921
:1007E0008E899F890E94320588232CF481E090E055
:1007F000998F888F65C020E03FEF4FE757E46C8901
:100800007D898E899F890E94B30518160CF046C019
:1008100020E030E040E251E4688979898A899B8947
:100820000E94B805E2966CAF7DAF8EAF9FAFE297A6
:10083000E2968CAD9DADAEADBFADE29722968CAF8A
:100840009DAFAEAFBFAF229722966CAD7DAD8EADA2
:100850009FAD22970E943705E6966CAF7DAF8EAFB5
:100860009FAFE697E496AEADBFADE497B98FA88F82
:1008700010C080E991E09B8F8A8F8A8D9B8D0197B4
:10088000F1F79B8F8A8F0000888D998D0197998F42
:10089000888F888D998D892B61F71DC06C897D8922
:1008A0008E899F890E943705EA966CAF7DAF8EAF27
:1008B0009FAFEA97E8968EAD9FADE897998F888FA6
:1008C000888D998D9D8F8C8F8C8D9D8D0197F1F7E3
:1008D0009D8F8C8F000040E060E083E00E94360036
:1008E00040E061E083E00E94360040E060E083E0A9
:1008F0000E94360041E061E083E00E94360080E023
:1009000090E0A0EAB1E48A839B83AC83BD8320E0BE
:1009100030E04AE755E46A817B818C819D810E94A9
:10092000B805EE966CAF7DAF8EAF9FAFEE97EE96AB
:100930008CAD9DADAEADBFADEE978E839F83A88786
:10094000B98720E030E040E85FE36E817F818885F1
:1009500099850E94320588232CF481E090E09B87E2
:100960008A876DC020E03FEF4FE757E46E817F81BB
:10097000888599850E94B30518160CF04AC020E0BE
:1009800030E040E251E46A817B818C819D810E944C
:10099000B805C258DF4F688379838A839B83CE571B
:1009A000D040C258DF4F88819981AA81BB81CE5740
:1009B000D0408AAF9BAFACAFBDAF6AAD7BAD8CAD65
:1009C0009DAD0E943705CE57DF4F688379838A83B8
:1009D0009B83C258D040CE57DF4FA881B981C258FF
:1009E000D040BB87AA8710C080E991E09D878C87A3
:1009F0008C859D850197F1F79D878C8700008A85FE
:100A00009B8501979B878A878A859B85892B61F7C0
:100A100021C06E817F81888599850E943705CA57DC
:100A2000DF4F688379838A839B83C658D040CA5737
:100A3000DF4F88819981C658D0409B878A878A85F5
:100A40009B859F878E878E859F850197F1F79F876E
:100A50008E87000089818F5F89838981893108F4BD
:100A600015CD12CD0E94660508F481E008950E941C
:100A7000920588F09F5798F0B92F9927B751B0F099
:100A8000E1F0660F771F881F991F1AF0BA95C9F712
:100A900014C0B13091F00E94AC05B1E008950C94FF
:100AA000AC05672F782F8827B85F39F0B93FCCF3B2
:100AB000869577956795B395D9F73EF4909580958F
:100AC000709561957F4F8F4F9F4F0895990F000844
:100AD000550FAA0BE0E8FEEF16161706E807F90710
:100AE000C0F012161306E407F50798F0621B730BAB
:100AF000840B950B39F40A2661F0232B242B252B2C
:100B000021F408950A2609F4A140A6958FEF811DCE
:100B1000811D089557FD9058440F551F59F05F3FB0
:100B200071F04795880F97FB991F61F09F3F79F00F
:100B300087950895121613061406551FF2CF469591
:100B4000F1DF08C0161617061806991FF1CF869513
:100B50007105610508940895E894BB2766277727F7
:100B6000CB0197F908950E94660508F48FEF089568
:100B70000E94CB050C943C060E942E0638F00E9481
:100B8000350620F0952311F00C9425060C942B06C5
:100B900011240C94AD050E948A0570F3959FC1F352
:100BA000950F50E0551F629FF001729FBB27F00D1B
:100BB000B11D639FAA27F00DB11DAA1F649F662770
:100BC000B00DA11D661F829F2227B00DA11D621FBF
:100BD000739FB00DA11D621F839FA00D611D221F79
:100BE000749F3327A00D611D231F849F600D211D5D
:100BF000822F762F6A2F11249F5750409AF0F1F0E0
:100C000088234AF0EE0FFF1FBB1F661F771F881F48
:100C100091505040A9F79E3F510580F00C94250655
:100C20000C94AD055F3FE4F3983ED4F38695779539
:100C30006795B795F795E7959F5FC1F7FE2B880FEE
:100C4000911D9695879597F9089597F99F6780E884
:100C500070E060E008959FEF80EC089500240A940E
:100C60001616170618060906089500240A94121687
:100C70001306140605060895092E0394000C11F4BA
:100C8000882352F0BB0F40F4BF2B11F460FF04C067
:0E0C90006F5F7F4F8F4F9F4F0895F894FFCFF7
:00000001FF
