:100000000C942A000C943F000C943F000C943F0089
:100010000C943F000C943F000C943F000C943F0064
:100020000C943F000C943F000C943F000C943F0054
:100030000C943F000C943F000C943F000C943F0044
:100040000C943F000C943F000C943F000C943F0034
:100050000C943F0011241FBECFE5D8E0DEBFCDBF1A
:1000600010E0A0E6B0E0E2E2F8E102C005900D92F7
:10007000A037B107D9F70E9441000C940F0C0C94E3
:1000800000000F931F93CF93DF93CDB7DEB7C55713
:10009000D1400FB6F894DEBF0FBECDBF8AE390E02B
:1000A000DC011C928BE390E02FEFFC01208387E3BF
:1000B00090E02FEFDC012C9389E390E0FC0180813C
:1000C000882F90E08E3F9105E9F18F3F910514F064
:1000D0000C94ED0A8D3F910509F4ADC18E3F910559
:1000E00014F00C94ED0A8B3F910509F47EC28C3F0D
:1000F000910514F00C94ED0A873F910509F44FC364
:10010000883F910514F00C94ED0A8F3E910509F497
:100110006FC3803F910514F00C94ED0A8F3D91055B
:1001200009F489C4803E910514F00C94ED0A8F37D0
:10013000910511F40C948D088F3B910509F4C3C609
:100140000C94ED0A88E390E02FEFDC012C9380E023
:1001500090E0A8ECB2E4888B998BAA8BBB8B20E053
:1001600030E04AE755E4688979898A899B890E9449
:100170007A0BCA52DF4F688379838A839B83C65D7B
:10018000D040CA52DF4F88819981AA81BB81C65D68
:10019000D0408C8B9D8BAE8BBF8B20E030E040E855
:1001A0005FE36C897D898E899F890E94F40A882388
:1001B0002CF481E090E0998F888F75C020E03FEFAC
:1001C0004FE757E46C897D898E899F890E94750B62
:1001D00018160CF052C020E030E040E251E468898B
:1001E00079898A899B890E947A0BC652DF4F68837E
:1001F00079838A839B83CA5DD040C652DF4F888152
:100200009981AA81BB81CA5DD040CE54DF4F8883DB
:100210009983AA83BB83C25BD040CE54DF4F6881F1
:1002200079818A819B81C25BD0400E94F90AC252C7
:10023000DF4F688379838A839B83CE5DD040C2522F
:10024000DF4FA881B981CE5DD040B98FA88F10C093
:1002500080E991E09B8F8A8F8A8D9B8D0197F1F7C2
:100260009B8F8A8F0000888D998D0197998F888F39
:10027000888D998D892B61F721C06C897D898E8944
:100280009F890E94F90ACE51DF4F688379838A8360
:100290009B83C25ED040CE51DF4FE881F981C25EC0
:1002A000D040F98FE88F888D998D9D8F8C8F8C8DA4
:1002B0009D8D0197F1F79D8F8C8F000088E390E072
:1002C000DC011C9280E090E0AAEFB3E48A839B8378
:1002D000AC83BD8320E030E04AE755E46A817B814E
:1002E0008C819D810E947A0BCA51DF4F688379838C
:1002F0008A839B83C65ED040CA51DF4F8881998133
:10030000AA81BB81C65ED0408E839F83A887B987B0
:1003100020E030E040E85FE36E817F818885998549
:100320000E94F40A88232CF481E090E09B878A875E
:1003300075C020E03FEF4FE757E46E817F818885ED
:1003400099850E94750B18160CF052C020E030E021
:1003500040E251E46A817B818C819D810E947A0B0D
:10036000C651DF4F688379838A839B83CA5ED040FE
:10037000C651DF4F88819981AA81BB81CA5ED04076
:10038000C255DF4F88839983AA83BB83CE5AD0405E
:10039000C255DF4F688179818A819B81CE5AD040D6
:1003A0000E94F90AC251DF4F688379838A839B8355
:1003B000CE5ED040C251DF4FA881B981CE5ED04021
:1003C000BB87AA8710C080E991E09D878C878C85C8
:1003D0009D850197F1F79D878C8700008A859B8515
:1003E00001979B878A878A859B85892B61F721C026
:1003F0006E817F81888599850E94F90ACE50DF4FF2
:10040000688379838A839B83C25FD040CE50DF4F5D
:10041000E881F981C25FD040FB87EA878A859B85A6
:100420009F878E878E859F850197F1F79F878E879F
:1004300000000C94F20A88E390E0DC011C9219821F
:10044000CEC088E390E0FC0140818981282F30E014
:1004500081E090E002C0880F991F2A95E2F7282FCB
:1004600088E390E0240FDC012C9380E090E0A8EC7E
:10047000B2E48E8F9F8FA8A3B9A320E030E04AE7B3
:1004800055E46E8D7F8D88A199A10E947A0BCA5088
:10049000DF4F688379838A839B83C65FD040CA50CD
:1004A000DF4F88819981AA81BB81C65FD0408AA332
:1004B0009BA3ACA3BDA320E030E040E85FE36AA1CA
:1004C0007BA18CA19DA10E94F40A88232CF481E0D9
:1004D00090E09FA38EA375C020E03FEF4FE757E465
:1004E0006AA17BA18CA19DA10E94750B18160CF02E
:1004F00052C020E030E040E251E46E8D7F8D88A153
:1005000099A10E947A0BC650DF4F688379838A8352
:100510009B83CA5FD040C650DF4F88819981AA81F2
:10052000BB81CA5FD040CA54DF4F88839983AA83B6
:10053000BB83C65BD040CA54DF4F688179818A8112
:100540009B81C65BD0400E94F90AC250DF4F68838E
:1005500079838A839B83CE5FD040C250DF4FA881CE
:10056000B981CE5FD040BFA3AEA310C080E991E0B7
:1005700099A788A788A599A50197F1F799A788A7B2
:1005800000008EA19FA101979FA38EA38EA19FA182
:10059000892B61F721C06AA17BA18CA19DA10E943A
:1005A000F90ACE5FDE4F688379838A839B83C250CA
:1005B000D140CE5FDE4FE881F981C250D140FFA328
:1005C000EEA38EA19FA19BA78AA78AA59BA50197B1
:1005D000F1F79BA78AA7000089818F5F89838981B2
:1005E000883008F42ECF0C94F20A88E390E0DC0106
:1005F0001C9288E08983CEC088E390E0FC014081B2
:100600008981282F30E081E090E002C095958795A0
:100610002A95E2F7282F88E390E0240FDC012C9341
:1006200080E090E0A8ECB2E48CA79DA7AEA7BFA79E
:1006300020E030E04AE755E46CA57DA58EA59FA596
:100640000E947A0BCA5FDE4F688379838A839B831B
:10065000C650D140CA5FDE4F88819981AA81BB8193
:10066000C650D14088AB99ABAAABBBAB20E030E021
:1006700040E85FE368A979A98AA99BA90E94F40AC6
:1006800088232CF481E090E09DAB8CAB75C020E01A
:100690003FEF4FE757E468A979A98AA99BA90E946F
:1006A000750B18160CF052C020E030E040E251E427
:1006B0006CA57DA58EA59FA50E947A0BC65FDE4F17
:1006C000688379838A839B83CA50D140C65FDE4F9B
:1006D00088819981AA81BB81CA50D140C654DF4F1D
:1006E00088839983AA83BB83CA5BD040C654DF4FFB
:1006F000688179818A819B81CA5BD0400E94F90A16
:10070000C25FDE4F688379838A839B83CE50D1405A
:10071000C25FDE4FA881B981CE50D140BDABACAB3A
:1007200010C080E991E09FAB8EAB8EA99FA9019785
:10073000F1F79FAB8EAB00008CA99DA901979DABF3
:100740008CAB8CA99DA9892B61F721C068A979A9D7
:100750008AA99BA90E94F90ACE5EDE4F688379833D
:100760008A839B83C251D140CE5EDE4FE881F981FE
:10077000C251D140FDABECAB8CA99DA999AF88AF1C
:1007800088AD99AD0197F1F799AF88AF00008981E5
:10079000815089838981882309F02ECF23C788E37C
:1007A00090E0DC011C92CE0182579F4F28E0E0E6EA
:1007B000F0E0DC0101900D922A95E1F7198214C056
:1007C0008981882F90E09E0122573F4F880F991F03
:1007D000820F931FFC012081318188E390E0DC01CE
:1007E0002C9389818F5F89838981843048F3FAC68D
:1007F00088E390E0FC011082CE018A569F4F28E0EA
:10080000E8E6F0E0DC0101900D922A95E1F719820B
:100810000DC18981882F90E09E012A563F4F880F95
:10082000991F820F931FDC012D913C9188E390E08A
:10083000FC01208380E090E0A8ECB2E48AAF9BAF9B
:10084000ACAFBDAF8E01025C1F4F20E030E04AE745
:1008500055E46AAD7BAD8CAD9DAD0E947A0BCA5E4E
:10086000DE4F688379838A839B83C651D140CA5EF9
:10087000DE4F88819981AA81BB81C651D140F801A0
:1008800080839183A283B383CE01CE9620E030E0B3
:1008900040E85FE3DC016D917D918D919C910E9418
:1008A000F40A88234CF4CE018E5B9F4F21E030E0A8
:1008B000FC01318320839CC0CE01CE9620E03FEF27
:1008C0004FE757E4DC016D917D918D919C910E94E1
:1008D000750B18160CF06FC020E030E040E251E4D8
:1008E0006AAD7BAD8CAD9DAD0E947A0BC65EDE4FCE
:1008F000688379838A839B83CA51D140C65EDE4F69
:1009000088819981AA81BB81CA51D140C254DF4FED
:1009100088839983AA83BB83CE5BD0408E010E5B14
:100920001F4FC254DF4F688179818A819B81CE5BE2
:10093000D0400E94F90AC25EDE4F688379838A83C1
:100940009B83CE51D140C25EDE4FE881F981CE510A
:10095000D140D801ED93FC9325C0CE018C5B9F4F15
:1009600020E931E0DC012D933C93CE018C5B9F4F5D
:10097000FC01808191810197F1F79E012C5B3F4F33
:10098000D9018D939C930000CE018E5B9F4F9E01F9
:100990002E5B3F4FF9012081318121503109DC016B
:1009A0002D933C93CE018E5B9F4FFC018081918102
:1009B000892B99F638C08E010E5B1F4FCE01CE9663
:1009C000DC016D917D918D919C910E94F90ACE5D23
:1009D000DE4F688379838A839B83C252D140CE5D88
:1009E000DE4F48815981C252D140F8015183408382
:1009F000CE018A5B9F4F9E012E5B3F4FD9012D9107
:100A00003C91FC0131832083CE018A5B9F4FDC0146
:100A10008D919C910197F1F79E012A5B3F4FF9015F
:100A200091838083000089818F5F898389818430ED
:100A300008F4EFCED7C588E390E0DC011C92198260
:100A40001BC18981282F30E081E090E0FC0102C0C9
:100A5000EE0FFF1F2A95E2F79F0188E390E0DC018B
:100A60002C939E01285B3F4F80E090E0A8ECB2E41D
:100A7000F90180839183A283B3838E01045B1F4FAE
:100A8000CE01885B9F4F20E030E04AE755E4DC016F
:100A90006D917D918D919C910E947A0BCA5DDE4F84
:100AA000688379838A839B83C652D140CA5DDE4FB7
:100AB00088819981AA81BB81C652D140F801808387
:100AC0009183A283B383CE01845B9F4F20E030E00B
:100AD00040E85FE3DC016D917D918D919C910E94D6
:100AE000F40A88234CF4CE01805B9F4F21E030E074
:100AF000FC0131832083A2C0CE01845B9F4F20E0A4
:100B00003FEF4FE757E4DC016D917D918D919C9112
:100B10000E94750B18160CF073C0CE01885B9F4FB6
:100B200020E030E040E251E4FC016081718182818B
:100B300093810E947A0BC65DDE4F688379838A8336
:100B40009B83CA52D140C65DDE4F88819981AA81BC
:100B5000BB81CA52D140CE53DF4F88839983AA8389
:100B6000BB83C25CD0408E01005B1F4FCE53DF4F72
:100B7000688179818A819B81C25CD0400E94F90A98
:100B8000C25DDE4F688379838A839B83CE52D140D6
:100B9000C25DDE4FE881F981CE52D140D801ED939C
:100BA000FC9325C0CE018E5A9F4F20E931E0DC0135
:100BB0002D933C93CE018E5A9F4FFC0180819181F1
:100BC0000197F1F79E012E5A3F4FD9018D939C93C7
:100BD0000000CE01805B9F4F9E01205B3F4FF901DB
:100BE0002081318121503109DC012D933C93CE01CC
:100BF000805B9F4FFC0180819181892B99F639C0E0
:100C00008E01005B1F4FCE01845B9F4FDC016D9115
:100C10007D918D919C910E94F90ACE5CDE4F688394
:100C200079838A839B83C253D140CE5CDE4F488157
:100C30005981C253D140F80151834083CE018C5A6F
:100C40009F4F9E01205B3F4FD9012D913C91FC01AC
:100C500031832083CE018C5A9F4FDC018D919C9172
:100C60000197F1F79E012C5A3F4FF9019183808340
:100C7000000089818F5F89838981883008F4E1CE03
:100C800087E089831BC18981282F30E081E090E0D3
:100C9000AC0102C0559547952A95E2F79A0188E381
:100CA00090E0DC012C939E012A5A3F4F80E090E0B7
:100CB000AAEFB3E4F90180839183A283B3838E0109
:100CC000065A1F4FCE018A5A9F4F20E030E04AE774
:100CD00055E4DC016D917D918D919C910E947A0B80
:100CE000CA5CDE4F688379838A839B83C653D14075
:100CF000CA5CDE4F88819981AA81BB81C653D140ED
:100D0000F80180839183A283B383CE01865A9F4FDB
:100D100020E030E040E85FE3DC016D917D918D9152
:100D20009C910E94F40A88234CF4CE01825A9F4F72
:100D300021E030E0FC0131832083A2C0CE01865A3D
:100D40009F4F20E03FEF4FE757E4DC016D917D912D
:100D50008D919C910E94750B18160CF073C0CE01FA
:100D60008A5A9F4F20E030E040E251E4FC0160816C
:100D70007181828193810E947A0BC65CDE4F688309
:100D800079838A839B83CA53D140C65CDE4F8881B6
:100D90009981AA81BB81CA53D140CA53DF4F88834E
:100DA0009983AA83BB83C65CD0408E01025A1F4F31
:100DB000CA53DF4F688179818A819B81C65CD040AC
:100DC0000E94F90AC25CDE4F688379838A839B8321
:100DD000CE53D140C25CDE4FE881F981CE53D14081
:100DE000D801ED93FC9325C0CE01805A9F4F20E996
:100DF00031E0DC012D933C93CE01805A9F4FFC01E2
:100E0000808191810197F1F79E01205A3F4FD901CE
:100E10008D939C930000CE01825A9F4F9E01225ACF
:100E20003F4FF9012081318121503109DC012D939F
:100E30003C93CE01825A9F4FFC0180819181892B86
:100E400099F639C08E01025A1F4FCE01865A9F4F24
:100E5000DC016D917D918D919C910E94F90ACE5B90
:100E6000DE4F688379838A839B83C254D140CE5BF3
:100E7000DE4F48815981C254D140F80151834083EB
:100E8000CE018E599F4F9E01225A3F4FD9012D917D
:100E90003C91FC0131832083CE018E599F4FDC01B0
:100EA0008D919C910197F1F79E012E593F4FF901C9
:100EB000918380830000898181508983898188237F
:100EC00009F0E1CE8FC388E390E0DC011C92198227
:100ED0001FC188E390E0FC0140818981282F30E028
:100EE00081E090E002C0880F991F2A95E2F7282F31
:100EF00088E390E0240FDC012C939E012C593F4F96
:100F000080E090E0A6E9B3E4F90180839183A283B5
:100F1000B3838E0108591F4FCE018C599F4F20E09B
:100F200030E04AE755E4DC016D917D918D919C9113
:100F30000E947A0BCA5BDE4F688379838A839B8326
:100F4000C654D140CA5BDE4F88819981AA81BB819A
:100F5000C654D140F80180839183A283B383CE012C
:100F600088599F4F20E030E040E85FE3DC016D915D
:100F70007D918D919C910E94F40A88234CF4CE01BE
:100F800084599F4F21E030E0FC0131832083A2C0CF
:100F9000CE0188599F4F20E03FEF4FE757E4DC0137
:100FA0006D917D918D919C910E94750B18160CF09E
:100FB00073C0CE018C599F4F20E030E040E251E4F5
:100FC000FC0160817181828193810E947A0BC65BF2
:100FD000DE4F688379838A839B83CA54D140C65B82
:100FE000DE4F88819981AA81BB81CA54D140C65302
:100FF000DF4F88839983AA83BB83CA5CD0408E016C
:1010000004591F4FC653DF4F688179818A819B81C4
:10101000CA5CD0400E94F90AC25BDE4F68837983C4
:101020008A839B83CE54D140C25BDE4FE881F98135
:10103000CE54D140D801ED93FC9325C0CE01825906
:101040009F4F20E931E0DC012D933C93CE01825982
:101050009F4FFC01808191810197F1F79E012259F8
:101060003F4FD9018D939C930000CE0184599F4F2F
:101070009E0124593F4FF9012081318121503109CE
:10108000DC012D933C93CE0184599F4FFC0180815C
:101090009181892B99F639C08E0104591F4FCE01D9
:1010A00088599F4FDC016D917D918D919C910E949B
:1010B000F90ACE5ADE4F688379838A839B83C255AF
:1010C000D140CE5ADE4F48815981C255D140F801F6
:1010D00051834083CE0180599F4F9E0124593F4F39
:1010E000D9012D913C91FC0131832083CE0180599F
:1010F0009F4FDC018D919C910197F1F79E01205942
:101100003F4FF90191838083000089818F5F89833C
:101110008981883008F4DDCE65C288E390E0DC0187
:101120001C92CE0182569F4F28E0E0E6F0E0DC0101
:1011300001900D922A95E1F7CE018A559F4F28E044
:10114000E8E6F0E0DC0101900D922A95E1F71982C2
:101150001CC18981882F90E09E0122563F4F880F45
:10116000991F820F931FFC012081318188E390E059
:10117000DC012C939E012E583F4F80E090E0A8ECBC
:10118000B2E4F90180839183A283B3838E010A586C
:101190001F4FCE018E589F4F20E030E04AE755E4C4
:1011A000DC016D917D918D919C910E947A0BCA5AC0
:1011B000DE4F688379838A839B83C655D140CA5AA0
:1011C000DE4F88819981AA81BB81C655D140F80143
:1011D00080839183A283B383CE018A589F4F20E0FE
:1011E00030E040E85FE3DC016D917D918D919C9151
:1011F0000E94F40A88234CF4CE0186589F4F21E0C8
:1012000030E0FC0131832083A2C0CE018A589F4F79
:1012100020E03FEF4FE757E4DC016D917D918D9128
:101220009C910E94750B18160CF073C0CE018E585D
:101230009F4F20E030E040E251E4FC016081718189
:10124000828193810E947A0BC65ADE4F688379832C
:101250008A839B83CA55D140C65ADE4F88819981C3
:10126000AA81BB81CA55D140C253DF4F888399837D
:10127000AA83BB83CE5CD0408E0106581F4FC25359
:10128000DF4F688179818A819B81CE5CD0400E944A
:10129000F90AC25ADE4F688379838A839B83CE55CD
:1012A000D140C25ADE4FE881F981CE55D140D801F4
:1012B000ED93FC9325C0CE0184589F4F20E931E087
:1012C000DC012D933C93CE0184589F4FFC0180811B
:1012D00091810197F1F79E0124583F4FD9018D93D9
:1012E0009C930000CE0186589F4F9E0126583F4F89
:1012F000F9012081318121503109DC012D933C938A
:10130000CE0186589F4FFC0180819181892B99F6EF
:1013100039C08E0106581F4FCE018A589F4FDC01FD
:101320006D917D918D919C910E94F90ACE59DE4F6D
:10133000688379838A839B83C256D140CE59DE4F1E
:1013400048815981C256D140F80151834083CE0172
:1013500082589F4F9E0126583F4FD9012D913C91B5
:10136000FC0131832083CE0182589F4FDC018D9197
:101370009C910197F1F79E0122583F4FF90191830B
:101380008083000089818F5F89838981843008F49C
:10139000E0CE83E089831CC18981882F90E09E0183
:1013A0002A553F4F880F991F820F931FDC012D9103
:1013B0003C9188E390E0FC0120839E0120583F4F40
:1013C00080E090E0A8ECB2E4F90180839183A283ED
:1013D000B3838E010C571F4FCE0180589F4F20E0E2
:1013E00030E04AE755E4DC016D917D918D919C914F
:1013F0000E947A0BCA59DE4F688379838A839B8364
:10140000C656D140CA59DE4F88819981AA81BB81D5
:10141000C656D140F80180839183A283B383CE0165
:101420008C579F4F20E030E040E85FE3DC016D9196
:101430007D918D919C910E94F40A88234CF4CE01F9
:1014400088579F4F21E030E0FC0131832083A2C008
:10145000CE018C579F4F20E03FEF4FE757E4DC0170
:101460006D917D918D919C910E94750B18160CF0D9
:1014700073C0CE0180589F4F20E030E040E251E43D
:10148000FC0160817181828193810E947A0BC6592F
:10149000DE4F688379838A839B83CA56D140C659BD
:1014A000DE4F88819981AA81BB81CA56D140CE5234
:1014B000DF4F88839983AA83BB83C25DD0408E01AE
:1014C00008571F4FCE52DF4F688179818A819B81F7
:1014D000C25DD0400E94F90AC259DE4F6883798309
:1014E0008A839B83CE56D140C259DE4FE881F98171
:1014F000CE56D140D801ED93FC9325C0CE0186573E
:101500009F4F20E931E0DC012D933C93CE018657BB
:101510009F4FFC01808191810197F1F79E01265731
:101520003F4FD9018D939C930000CE0188579F4F68
:101530009E0128573F4FF901208131812150310907
:10154000DC012D933C93CE0188579F4FFC01808195
:101550009181892B99F639C08E0108571F4FCE0112
:101560008C579F4FDC016D917D918D919C910E94D4
:10157000F90ACE58DE4F688379838A839B83C257EA
:10158000D140CE58DE4F48815981C257D140F80131
:1015900051834083CE0184579F4F9E0128573F4F70
:1015A000D9012D913C91FC0131832083CE018457D8
:1015B0009F4FDC018D919C910197F1F79E0124577B
:1015C0003F4FF90191838083000089818150898395
:1015D0008981882309F0E0CE05C088E390E02FEFF1
:1015E000DC012C930C945C000E94280B08F481E031
:1015F00008950E94540B88F09F5798F0B92F9927AF
:10160000B751B0F0E1F0660F771F881F991F1AF0ED
:10161000BA95C9F714C0B13091F00E946E0BB1E0D9
:1016200008950C946E0B672F782F8827B85F39F0D8
:10163000B93FCCF3869577956795B395D9F73EF486
:1016400090958095709561957F4F8F4F9F4F08952E
:10165000990F0008550FAA0BE0E8FEEF16161706C3
:10166000E807F907C0F012161306E407F50798F02B
:10167000621B730B840B950B39F40A2661F0232B44
:10168000242B252B21F408950A2609F4A140A695C0
:101690008FEF811D811D089557FD9058440F551FF0
:1016A00059F05F3F71F04795880F97FB991F61F0E4
:1016B0009F3F79F087950895121613061406551F5B
:1016C000F2CF4695F1DF08C0161617061806991FC7
:1016D000F1CF86957105610508940895E894BB27BC
:1016E00066277727CB0197F908950E94280B08F405
:1016F0008FEF08950E948D0B0C94FE0B0E94F00B4F
:1017000038F00E94F70B20F0952311F00C94E70BB2
:101710000C94ED0B11240C946F0B0E944C0B70F386
:10172000959FC1F3950F50E0551F629FF001729F86
:10173000BB27F00DB11D639FAA27F00DB11DAA1F95
:10174000649F6627B00DA11D661F829F2227B00DE2
:10175000A11D621F739FB00DA11D621F839FA00D6D
:10176000611D221F749F3327A00D611D231F849FBD
:10177000600D211D822F762F6A2F11249F57504014
:101780009AF0F1F088234AF0EE0FFF1FBB1F661F8F
:10179000771F881F91505040A9F79E3F510580F058
:1017A0000C94E70B0C946F0B5F3FE4F3983ED4F37B
:1017B000869577956795B795F795E7959F5FC1F7FC
:1017C000FE2B880F911D9695879597F9089597F9A7
:1017D0009F6780E870E060E008959FEF80EC0895D7
:1017E00000240A9416161706180609060895002400
:1017F0000A9412161306140605060895092E03947A
:10180000000C11F4882352F0BB0F40F4BF2B11F4ED
:1018100060FF04C06F5F7F4F8F4F9F4F0895F89414
:02182000FFCFF8
:1018220018003C007E00FF00FF007E003C00180014
:00000001FF
