:100000000C942A000C943F000C943F000C943F0089
:100010000C943F000C943F000C943F000C943F0064
:100020000C943F000C943F000C943F000C943F0054
:100030000C943F000C943F000C943F000C943F0044
:100040000C943F000C943F000C943F000C943F0034
:100050000C943F0011241FBECFE5D8E0DEBFCDBF1A
:1000600010E0A0E6B0E0EEEAF8E002C005900D92E4
:10007000A03AB107D9F70E9441000C9455040C94A2
:100080000000CF93DF93CDB7DEB7C75AD1090FB6C3
:10009000F894DEBF0FBECDBF8AE390E027E0DC011D
:1000A0002C9387E390E02FEFFC01208384E390E022
:1000B0002FEFDC012C9380E2E0E6F0E0DE019C967D
:1000C00001900D928A95E1F7CE01845B9F4F20E26B
:1000D000E0E8F0E0DC0101900D922A95E1F78BE376
:1000E00090E0FC0120818BE390E02160DC012C9307
:1000F0001982D5C08981882F90E0880F991F9E01B1
:100100002F5F3F4F820F931F8B96FC01208131811F
:1001100088E390E0DC012C938981882F90E09E0198
:10012000245B3F4F880F991F820F931FFC01208192
:10013000318185E390E0DC012C9380E090E0A8EC35
:10014000B2E48A839B83AC83BD8320E030E04AEF36
:1001500054E46A817B818C819D810E94C003EC966E
:100160006CAF7DAF8EAF9FAFEC97EC968CAD9DAD35
:10017000AEADBFADEC978E839F83A887B98720E093
:1001800030E040E85FE36E817F81888599850E9439
:100190003A0388232CF481E090E09B878A8771C022
:1001A00020E03FEF4FE757E46E817F818885998596
:1001B0000E94BB0318160CF04EC020E030E040E275
:1001C00051E46A817B818C819D810E94C003C45867
:1001D000DF4F688379838A839B83CC57D040C45890
:1001E000DF4F88819981AA81BB81CC57D040E096AE
:1001F0008CAF9DAFAEAFBFAFE097E0966CAD7DAD7D
:100200008EAD9FADE0970E943F03C058DF4F6883DB
:1002100079838A839B83C058D040C058DF4FA88120
:10022000B981C058D040BB87AA8710C088EC90E045
:100230009D878C878C859D850197F1F79D878C879D
:1002400000008A859B8501979B878A878A859B8585
:10025000892B61F721C06E817F81888599850E94F5
:100260003F03CC57DF4F688379838A839B83C458CD
:10027000D040CC57DF4FE881F981C458D040FB878C
:10028000EA878A859B859F878E878E859F850197C4
:10029000F1F79F878E87000089818F5F898389812D
:1002A000803108F427CF8BE390E0DC012C918BE3C5
:1002B00090E02E7FFC0120838BE390E0DC012C9109
:1002C0008BE390E02260FC01208382E08983D3C02D
:1002D0008981882F90E0880F991F9E012F5F3F4FE3
:1002E000820F931F8B96DC012D913C9188E390E067
:1002F000FC012083CE01845B9F4FDC011E962D9173
:100300003C9185E390E0FC01208380E090E0A8EC44
:10031000B2E4888B998BAA8BBB8B20E030E04AEF4C
:1003200054E4688979898A899B890E94C003C857E7
:10033000DF4F688379838A839B83C858D040C8572E
:10034000DF4F88819981AA81BB81C858D0408C8BAE
:100350009D8BAE8BBF8B20E030E040E85FE36C8983
:100360007D898E899F890E943A0388232CF481E03D
:1003700090E0998F888F71C020E03FEF4FE757E4FE
:100380006C897D898E899F890E94BB0318160CF0A9
:100390004EC020E030E040E251E4688979898A89E2
:1003A0009B890E94C003C457DF4F688379838A8387
:1003B0009B83CC58D040C457DF4F88819981AA8154
:1003C000BB81CC58D040E4968CAF9DAFAEAFBFAFF1
:1003D000E497E4966CAD7DAD8EAD9FADE4970E9441
:1003E0003F03C057DF4F688379838A839B83C0595B
:1003F000D040C057DF4FA881B981C059D040B98FD4
:10040000A88F10C088EC90E09B8F8A8F8A8D9B8D7F
:100410000197F1F79B8F8A8F0000888D998D019746
:10042000998F888F888D998D892B61F721C06C8970
:100430007D898E899F890E943F03CC56DF4F688358
:1004400079838A839B83C459D040CC56DF4FE8819F
:10045000F981C459D040F98FE88F888D998D9D8F8F
:100460008C8F8C8D9D8D0197F1F79D8F8C8F000067
:1004700089818F5F89838981853008F429CF8BE357
:1004800090E0DC012C918BE390E02D7FFC01208338
:100490008BE390E0DC012C918BE390E02460FC0185
:1004A00020831982D9C08981882F90E0880F991FF5
:1004B0009E012F5F3F4F820F931F8B96DC012D9182
:1004C0003C9188E390E0FC0120838981882F90E0B3
:1004D0009E01245B3F4F880F991F820F931FDC0101
:1004E0002D913C9185E390E0FC01208380E090E039
:1004F000A8ECB2E48E8F9F8FA8A3B9A320E030E0D0
:100500004AEF54E46E8D7F8D88A199A10E94C003AB
:10051000C856DF4F688379838A839B83C859D0404C
:10052000C856DF4F88819981AA81BB81C859D040C4
:100530008AA39BA3ACA3BDA320E030E040E85FE327
:100540006AA17BA18CA19DA10E943A0388232CF46F
:1005500081E090E09FA38EA371C020E03FEF4FE7C2
:1005600057E46AA17BA18CA19DA10E94BB03181630
:100570000CF04EC020E030E040E251E46E8D7F8D03
:1005800088A199A10E94C003C456DF4F6883798374
:100590008A839B83CC59D040C456DF4F8881998190
:1005A000AA81BB81CC59D040E8968CAF9DAFAEAF4D
:1005B000BFAFE897E8966CAD7DAD8EAD9FADE89787
:1005C0000E943F03C056DF4F688379838A839B83F1
:1005D000C05AD040C056DF4FA881B981C05AD04020
:1005E000BFA3AEA310C088EC90E099A788A788A508
:1005F00099A50197F1F799A788A700008EA19FA15F
:1006000001979FA38EA38EA19FA1892B61F721C083
:100610006AA17BA18CA19DA10E943F03CC55DF4F15
:10062000688379838A839B83C45AD040CC55DF4F3B
:10063000E881F981C45AD040FFA3EEA38EA19FA107
:100640009BA78AA78AA59BA50197F1F79BA78AA7D5
:10065000000089818F5F89838981803108F423CFED
:100660008BE390E0DC012C918BE390E02B7FFC018D
:10067000208335CD0E946E0308F481E008950E9426
:100680009A0388F09F5798F0B92F9927B751B0F087
:10069000E1F0660F771F881F991F1AF0BA95C9F706
:1006A00014C0B13091F00E94B403B1E008950C94ED
:1006B000B403672F782F8827B85F39F0B93FCCF3A0
:1006C000869577956795B395D9F73EF49095809583
:1006D000709561957F4F8F4F9F4F0895990F000838
:1006E000550FAA0BE0E8FEEF16161706E807F90704
:1006F000C0F012161306E407F50798F0621B730B9F
:10070000840B950B39F40A2661F0232B242B252B1F
:1007100021F408950A2609F4A140A6958FEF811DC2
:10072000811D089557FD9058440F551F59F05F3FA4
:1007300071F04795880F97FB991F61F09F3F79F003
:1007400087950895121613061406551FF2CF469585
:10075000F1DF08C0161617061806991FF1CF869507
:100760007105610508940895E894BB2766277727EB
:10077000CB0197F908950E946E0308F48FEF089556
:100780000E94D3030C9444040E94360438F00E9463
:100790003D0420F0952311F00C942D040C943304A7
:1007A00011240C94B5030E94920370F3959FC1F33A
:1007B000950F50E0551F629FF001729FBB27F00D0F
:1007C000B11D639FAA27F00DB11DAA1F649F662764
:1007D000B00DA11D661F829F2227B00DA11D621FB3
:1007E000739FB00DA11D621F839FA00D611D221F6D
:1007F000749F3327A00D611D231F849F600D211D51
:10080000822F762F6A2F11249F5750409AF0F1F0D3
:1008100088234AF0EE0FFF1FBB1F661F771F881F3C
:1008200091505040A9F79E3F510580F00C942D0443
:100830000C94B5035F3FE4F3983ED4F38695779527
:100840006795B795F795E7959F5FC1F7FE2B880FE2
:10085000911D9695879597F9089597F99F6780E878
:1008600070E060E008959FEF80EC089500240A9402
:100870001616170618060906089500240A9412167B
:100880001306140605060895092E0394000C11F4AE
:10089000882352F0BB0F40F4BF2B11F460FF04C05B
:0E08A0006F5F7F4F8F4F9F4F0895F894FFCFEB
:1008AE006D0066004F005B0006003F006F007F008A
:1008BE004F007D006D0066004F005B0006003F009C
:1008CE000600060006000600060006003F003F0078
:1008DE003F003F003F003F003F003F003F003F0012
:00000001FF
