:100000000C942A000C941B040C946D040C94BF04F3
:100010000C943C000C943C000C943C000C943C0070
:100020000C943C000C943C000C943C000C943C0060
:100030000C943C000C943C000C943C000C943C0050
:100040000C943C000C943C000C943C000C943C0040
:100050000C943C0011241FBECFE5D8E0DEBFCDBF1D
:1000600020E0A0E6B0E001C01D92A636B207E1F79D
:100070000E9442050C94F8080C940000CF93DF9383
:1000800000D000D0CDB7DEB78A836B834C83198252
:100090008B81883008F0F1C08C81813009F071C00B
:1000A0008A81882F90E08430910509F452C0853010
:1000B00091050CF064C083309105A9F1843091055D
:1000C0000CF05DC0009719F00197B9F058C08BE3B0
:1000D00090E0FC018081482F8B81282F30E081E067
:1000E00090E002C0880F991F2A95E2F7242F282B51
:1000F0008BE390E0FC012083C2C088E390E0FC0128
:100100008081482F8B81282F30E081E090E002C071
:10011000880F991F2A95E2F7242F282B88E390E077
:10012000FC012083ACC085E390E0FC018081482F76
:100130008B81282F30E081E090E002C0880F991F6A
:100140002A95E2F7242F282B85E390E0FC012083F9
:1001500096C082E390E0FC018081482F8B81282F9C
:1001600030E081E090E002C0880F991F2A95E2F705
:10017000242F282B82E390E0FC01208380C0198289
:100180007EC08C81882309F075C08A81882F90E019
:100190008430910509F455C0853091050CF068C094
:1001A00083309105B9F1843091050CF061C000975E
:1001B00019F00197C1F05CC08BE390E0FC018081F5
:1001C000482F8B81282F30E081E090E002C0880F1B
:1001D000991F2A95E2F78095242F28238BE390E03E
:1001E000FC0120834CC088E390E0FC018081482F13
:1001F0008B81282F30E081E090E002C0880F991FAA
:100200002A95E2F78095242F282388E390E0FC01CB
:10021000208335C085E390E0FC018081482F8B81ED
:10022000282F30E081E090E002C0880F991F2A95C6
:10023000E2F78095242F282385E390E0FC012083BA
:100240001EC082E390E0FC018081482F8B81282F23
:1002500030E081E090E002C0880F991F2A95E2F714
:100260008095242F282382E390E0FC01208307C09F
:10027000198205C081E0898302C081E08983898178
:100280000F900F900F900F90DF91CF910895CF9323
:10029000DF9300D00F92CDB7DEB78A836B831982CC
:1002A0008A81882F90E08430910501F18530910595
:1002B0001CF583309105A1F084309105ECF4009792
:1002C00019F0019739F018C08BE390E02B81FC0105
:1002D000208315C088E390E02B81FC0120830FC0B0
:1002E00085E390E02B81FC01208309C082E390E04C
:1002F0002B81FC01208303C081E089830000898178
:100300000F900F900F90DF91CF910895CF93DF93CF
:1003100000D000D00F92CDB7DEB78A836B835D83A8
:100320004C8319828C819D81892B09F473C08B8148
:10033000883008F06FC08A81882F90E08430910562
:1003400009F44FC0853091050CF060C083309105F1
:1003500099F1843091050CF059C0009719F001977C
:10036000B1F054C089E390E0FC018081882F90E0D7
:100370002B81222F30E002C0959587952A95E2F7D0
:10038000282F21708C819D81FC01208342C086E34F
:1003900090E0FC018081882F90E02B81222F30E0BB
:1003A00002C0959587952A95E2F7282F21708C81B8
:1003B0009D81FC0120832DC083E390E0FC018081BE
:1003C000882F90E02B81222F30E002C095958795F1
:1003D0002A95E2F7282F21708C819D81FC012083D2
:1003E00018C080E390E0FC018081882F90E02B8191
:1003F000222F30E002C0959587952A95E2F7282FA5
:1004000021708C819D81FC01208303C081E0898360
:10041000000002C081E0898389810F900F900F90C6
:100420000F900F90DF91CF910895CF93DF93CDB7C9
:10043000DEB785E590E0FC01208185E590E0226053
:10044000FC01208385E590E0FC01208185E590E0BA
:100450002E7FFC0120838BE590E0FC0120818BE561
:1004600090E02064FC0120830000DF91CF9108958B
:10047000CF93DF93CDB7DEB785E590E0FC01208117
:1004800085E590E02860FC01208385E590E0FC0193
:10049000208185E590E02B7FFC0120838BE590E0B7
:1004A000FC0120818BE590E02068FC0120830000A6
:1004B000DF91CF910895CF93DF93CDB7DEB784E579
:1004C00090E0FC01208184E590E02F7BFC012083FB
:1004D0008BE590E0FC0120818BE590E02062FC013F
:1004E00020830000DF91CF910895CF93DF9300D058
:1004F000CDB7DEB78A8319828A81882F90E0843055
:100500009105C1F1853091050CF05AC083309105F9
:1005100009F443C0843091050CF052C0813091053C
:1005200019F00297A1F04CC085E590E0FC01208114
:1005300085E590E02D7FFC01208385E590E0FC01BE
:10054000208185E590E02E7FFC0120833BC085E57E
:1005500090E0FC01208185E590E02160FC01208392
:1005600085E590E0FC01208185E590E02D7FFC0190
:10057000208328C085E590E0FC01208185E590E09E
:100580002260FC01208385E590E0FC01208185E567
:1005900090E02160FC01208315C085E590E0FC011E
:1005A000208185E590E02260FC01208385E590E0D4
:1005B000FC01208185E590E02E7FFC01208302C0B4
:1005C00081E0898389810F900F90DF91CF91089509
:1005D000CF93DF9300D0CDB7DEB78A8319828A81AB
:1005E000882F90E084309105C1F1853091050CF0A1
:1005F0005AC08330910509F443C0843091050CF052
:1006000052C08130910519F00297A1F04CC085E5E8
:1006100090E0FC01208185E590E0277FFC012083AC
:1006200085E590E0FC01208185E590E02B7FFC01D1
:1006300020833BC085E590E0FC01208185E590E0CA
:10064000277FFC01208385E590E0FC01208185E582
:1006500090E02460FC01208328C085E590E0FC0147
:10066000208185E590E02860FC01208385E590E00D
:10067000FC01208185E590E02460FC01208315C009
:1006800085E590E0FC01208185E590E02860FC0193
:10069000208385E590E0FC01208185E590E02B7FBB
:1006A000FC01208302C081E0898389810F900F9033
:1006B000DF91CF910895CF93DF9300D0CDB7DEB710
:1006C0008A8319828A81882F90E08330910561F0B6
:1006D0000497A1F484E590E0FC01208184E590E09A
:1006E0002064FC0120830CC084E590E0FC012081A3
:1006F00084E590E02F7BFC01208302C081E08983A8
:1007000089810F900F90DF91CF910895CF93DF9360
:1007100000D0CDB7DEB78A8319828A81882F90E016
:1007200083309105E9F08430910524F581309105FD
:1007300019F0029759F01EC08BE590E0FC01208172
:100740008BE590E02064FC01208316C08BE590E0EF
:10075000FC0120818BE590E02068FC0120830CC027
:100760008BE590E0FC0120818BE590E02062FC01AC
:10077000208302C081E0898389810F900F90DF91EF
:10078000CF910895CF93DF9300D0CDB7DEB78A83A2
:1007900019828A81882F90E083309105E9F08430B6
:1007A000910524F58130910519F0029759F01EC08A
:1007B0008BE590E0FC0120818BE590E02F7BFC0134
:1007C000208316C08BE590E0FC0120818BE590E052
:1007D0002F77FC0120830CC08BE590E0FC01208189
:1007E0008BE590E02F7DFC01208302C081E08983AE
:1007F00089810F900F90DF91CF910895CF93DF9370
:1008000000D00F92CDB7DEB79B838A8319828A818D
:100810009B81892B39F08A819B8190936100809321
:10082000600002C082E0898389810F900F900F9051
:10083000DF91CF9108951F920F920FB60F9211245E
:100840002F933F934F935F936F937F938F939F93D8
:10085000AF93BF93EF93FF93CF93DF93CDB7DEB703
:100860008091600090916100892B31F0809160004F
:1008700090916100FC0109950000DF91CF91FF91FB
:10088000EF91BF91AF919F918F917F916F915F9108
:100890004F913F912F910F900FBE0F901F90189581
:1008A000CF93DF9300D00F92CDB7DEB79B838A83BF
:1008B00019828A819B81892B39F08A819B8190934F
:1008C00063008093620002C082E0898389810F9077
:1008D0000F900F90DF91CF9108951F920F920FB656
:1008E0000F9211242F933F934F935F936F937F93B6
:1008F0008F939F93AF93BF93EF93FF93CF93DF9328
:10090000CDB7DEB78091620090916300892B31F002
:100910008091620090916300FC0109950000DF91D5
:10092000CF91FF91EF91BF91AF919F918F917F9167
:100930006F915F914F913F912F910F900FBE0F904C
:100940001F901895CF93DF9300D00F92CDB7DEB7ED
:100950009B838A8319828A819B81892B39F08A81C2
:100960009B81909365008093640002C082E089833C
:1009700089810F900F900F90DF91CF9108951F9272
:100980000F920FB60F9211242F933F934F935F93C3
:100990006F937F938F939F93AF93BF93EF93FF9347
:1009A000CF93DF93CDB7DEB780916400909165005F
:1009B000892B31F08091640090916500FC010995CC
:1009C0000000DF91CF91FF91EF91BF91AF919F9187
:1009D0008F917F916F915F914F913F912F910F90E8
:1009E0000FBE0F901F901895CF93DF93CDB7DEB752
:1009F0008FE590E0FC0120818FE590E02068FC010C
:100A000020830000DF91CF910895CF93DF93CDB77E
:100A1000DEB78FE590E0FC0120818FE590E02F7735
:100A2000FC0120830000DF91CF910895CF93DF93E5
:100A3000CDB7DEB78AE390E021E0FC01208387E3B5
:100A400090E020E8FC01208384E390E020E8FC01B2
:100A5000208381E390E0FC0110828BE390E0FC01B5
:100A6000108288E390E0FC01108285E390E0FC01B5
:100A7000108282E390E02CE0FC0120830000DF91F3
:100A8000CF910895CF93DF93CDB7DEB70E941605BF
:100A90000E9415020E94380287E595E00E94FE033D
:100AA0008AE996E00E9450040E94F404FFCFCF939D
:100AB000DF93CDB7DEB7C454D1090FB6F894DEBFCB
:100AC0000FBECDBF41E060E080E00E943E0080E0CC
:100AD00090E0A8E4B2E48F87988BA98BBA8B20E0D2
:100AE00030E04AEF54E46F85788989899A890E94B9
:100AF00063086DA37EA38FA398A78DA19EA1AFA12C
:100B0000B8A58B8B9C8BAD8BBE8B20E030E040E892
:100B10005FE36B897C898D899E890E94DD0788232C
:100B20002CF481E090E0988F8F8B54C020E03FEF51
:100B30004FE757E46B897C898D899E890E945E0806
:100B40001816D4F520E030E040E251E46F85788952
:100B500089899A890E94630869A77AA78BA79CA7AD
:100B600089A59AA5ABA5BCA589A39AA3ABA3BCA351
:100B700069A17AA18BA19CA10E94E2076DA77EA723
:100B80008FA798ABADA5BEA5B88FAF8B10C088EC72
:100B900090E09A8F898F898D9A8D0197F1F79A8FBE
:100BA000898F00008F89988D0197988F8F8B8F89FF
:100BB000988D892B61F719C06B897C898D899E89F5
:100BC0000E94E20769AB7AAB8BAB9CAB89A99AA96F
:100BD000988F8F8B8F89988D9C8F8B8F8B8D9C8D11
:100BE0000197F1F79C8F8B8F000040E060E080E080
:100BF0000E943E0080E090E0A8E4B2E489839A83FA
:100C0000AB83BC8320E030E04AEF54E469817A8111
:100C10008B819C810E9463086DAB7EAB8FAB98AFDC
:100C20008DA99EA9AFA9B8AD8D839E83AF83B887E8
:100C300020E030E040E85FE36D817E818F81988520
:100C40000E94DD0788232CF481E090E09A87898751
:100C50005BC020E03FEF4FE757E46D817E818F81DD
:100C600098850E945E0818160CF03CC020E030E029
:100C700040E251E469817A818B819C810E94630802
:100C800069AF7AAF8BAF9CAF89AD9AADABADBCAD60
:100C90008D8F9E8FAF8FB8A36D8D7E8D8F8D98A118
:100CA0000E94E20721966CAF7DAF8EAF9FAF219778
:100CB000ADADBEADBA87A98710C088EC90E09C8727
:100CC0008B878B859C850197F1F79C878B8700002C
:100CD00089859A8501979A87898789859A85892B3D
:100CE00061F71DC06D817E818F8198850E94E2072A
:100CF00025966CAF7DAF8EAF9FAF259723968EADB7
:100D00009FAD23979A87898789859A859E878D8746
:100D10008D859E850197F1F79E878D8700000000E5
:100D2000CC5BDF4F0FB6F894DEBF0FBECDBFDF91B7
:100D3000CF910895CF93DF93CDB7DEB7C454D109D7
:100D40000FB6F894DEBF0FBECDBF41E067E081E093
:100D50000E943E0080E090E0A8E4B2E48F87988B88
:100D6000A98BBA8B20E030E04AEF54E46F85788994
:100D700089899A890E9463086DA37EA38FA398A78F
:100D80008DA19EA1AFA1B8A58B8B9C8BAD8BBE8B8B
:100D900020E030E040E85FE36B897C898D899E89A3
:100DA0000E94DD0788232CF481E090E0988F8F8BE0
:100DB00054C020E03FEF4FE757E46B897C898D8971
:100DC0009E890E945E081816D4F520E030E040E2CB
:100DD00051E46F85788989899A890E94630869A797
:100DE0007AA78BA79CA789A59AA5ABA5BCA589A323
:100DF0009AA3ABA3BCA369A17AA18BA19CA10E94D9
:100E0000E2076DA77EA78FA798ABADA5BEA5B88F4B
:100E1000AF8B10C088EC90E09A8F898F898D9A8D66
:100E20000197F1F79A8F898F00008F89988D01972C
:100E3000988F8F8B8F89988D892B61F719C06B895B
:100E40007C898D899E890E94E20769AB7AAB8BAB66
:100E50009CAB89A99AA9988F8F8B8F89988D9C8F2D
:100E60008B8F8B8D9C8D0197F1F79C8F8B8F000062
:100E700040E067E081E00E943E0080E090E0A8E46E
:100E8000B2E489839A83AB83BC8320E030E04AEFED
:100E900054E469817A818B819C810E9463086DABE7
:100EA0007EAB8FAB98AF8DA99EA9AFA9B8AD8D834E
:100EB0009E83AF83B88720E030E040E85FE36D8138
:100EC0007E818F8198850E94DD0788232CF481E044
:100ED00090E09A8789875BC020E03FEF4FE757E4B7
:100EE0006D817E818F8198850E945E0818160CF0B6
:100EF0003CC020E030E040E251E469817A818B819E
:100F00009C810E94630869AF7AAF8BAF9CAF89ADBB
:100F10009AADABADBCAD8D8F9E8FAF8FB8A36D8DED
:100F20007E8D8F8D98A10E94E20721966CAF7DAFD8
:100F30008EAF9FAF2197ADADBEADBA87A98710C068
:100F400088EC90E09C878B878B859C850197F1F7D7
:100F50009C878B87000089859A8501979A87898766
:100F600089859A85892B61F71DC06D817E818F816E
:100F700098850E94E20725966CAF7DAF8EAF9FAF3C
:100F8000259723968EAD9FAD23979A87898789856C
:100F90009A859E878D878D859E850197F1F79E871F
:100FA0008D8700000000CC5BDF4F0FB6F894DEBFEA
:100FB0000FBECDBFDF91CF9108950E94110808F4B4
:100FC00081E008950E943D0888F09F5798F0B92F5E
:100FD0009927B751B0F0E1F0660F771F881F991F6E
:100FE0001AF0BA95C9F714C0B13091F00E945708B1
:100FF000B1E008950C945708672F782F8827B85FC1
:1010000039F0B93FCCF3869577956795B395D9F7C5
:101010003EF490958095709561957F4F8F4F9F4FCF
:101020000895990F0008550FAA0BE0E8FEEF161679
:101030001706E807F907C0F012161306E407F507CC
:1010400098F0621B730B840B950B39F40A2661F040
:10105000232B242B252B21F408950A2609F4A140E3
:10106000A6958FEF811D811D089557FD9058440F5F
:10107000551F59F05F3F71F04795880F97FB991FF7
:1010800061F09F3F79F087950895121613061406B4
:10109000551FF2CF4695F1DF08C016161706180641
:1010A000991FF1CF86957105610508940895E8941C
:1010B000BB2766277727CB0197F908950E9411086F
:1010C00008F48FEF08950E9476080C94E7080E94B8
:1010D000D90838F00E94E00820F0952311F00C9414
:1010E000D0080C94D60811240C9458080E94350896
:1010F00070F3959FC1F3950F50E0551F629FF0016B
:10110000729FBB27F00DB11D639FAA27F00DB11D83
:10111000AA1F649F6627B00DA11D661F829F22270C
:10112000B00DA11D621F739FB00DA11D621F839F93
:10113000A00D611D221F749F3327A00D611D231F69
:10114000849F600D211D822F762F6A2F11249F57B7
:1011500050409AF0F1F088234AF0EE0FFF1FBB1FBA
:10116000661F771F881F91505040A9F79E3F510579
:1011700080F00C94D0080C9458085F3FE4F3983E3C
:10118000D4F3869577956795B795F795E7959F5F23
:10119000C1F7FE2B880F911D9695879597F90895B5
:1011A00097F99F6780E870E060E008959FEF80EC1A
:1011B000089500240A9416161706180609060895BD
:1011C00000240A9412161306140605060895092E23
:1011D0000394000C11F4882352F0BB0F40F4BF2B92
:1011E00011F460FF04C06F5F7F4F8F4F9F4F0895D2
:0411F000F894FFCFA1
:00000001FF
