:100000000C942A000C9434000C9434000C943400AA
:100010000C9434000C9434000C9434000C94340090
:100020000C9434000C9434000C9434000C94340080
:100030000C9434000C9434000C9434000C94340070
:100040000C9434000C9434000C9434000C94340060
:100050000C94340011241FBECFE5D8E0DEBFCDBF25
:100060000E94E2050C945A070C940000CF93DF9392
:10007000CDB7DEB787E290E0FC01208187E290E017
:100080002064FC01208387E290E0FC01208187E26C
:1000900090E02F77FC01208387E290E0FC01208133
:1000A00087E290E02062FC01208386E290E0FC0180
:1000B000208186E290E0287FFC01208386E290E0A8
:1000C000FC01208186E290E02660FC01208386E22C
:1000D00090E0FC01208186E290E02068FC01208312
:1000E0000000DF91CF910895CF93DF9300D00F925E
:1000F000CDB7DEB78B8387E290E0FC01208187E2F9
:1001000090E0207EFC01208387E290E0FC013081BA
:1001100087E290E02B81232BFC01208386E290E094
:10012000FC01208186E290E02064FC012083000035
:1001300086E290E0FC01808182958F70882F90E0AC
:1001400081709927892BA1F386E290E0FC01208140
:1001500086E290E02061FC01208385E290E0FC01D2
:100160008081882F90E09A83898389819A810F907A
:100170000F900F90DF91CF910895CF93DF93CDB77C
:10018000DEB7A3970FB6F894DEBF0FBECDBF8F8743
:1001900040E060E084E00E94E10340E061E084E050
:1001A0000E94E1036F8583E00E94EA0441E062E07F
:1001B00084E00E94E10380E090E0A0E0B0E4898365
:1001C0009A83AB83BC8320E030E04AEF54E469813A
:1001D0007A818B819C810E94C5066C8B7D8B8E8B76
:1001E0009F8B8C899D89AE89BF898D839E83AF83C8
:1001F000B88720E030E040E85FE36D817E818F8149
:1002000098850E943F0688232CF481E090E09A872D
:10021000898754C020E03FEF4FE757E46D817E812E
:100220008F8198850E94C0061816D4F520E030E032
:1002300040E251E469817A818B819C810E94C506EC
:10024000688F798F8A8F9B8F888D998DAA8DBB8DB2
:10025000888B998BAA8BBB8B688979898A899B89C2
:100260000E9444066C8F7D8F8E8F9F8FAC8DBD8DCD
:10027000BA87A98710C088EC90E09C878B878B8514
:100280009C850197F1F79C878B87000089859A856B
:1002900001979A87898789859A85892B61F719C083
:1002A0006D817E818F8198850E94440668A379A321
:1002B0008AA39BA388A199A19A87898789859A8512
:1002C0009E878D878D859E850197F1F79E878D8707
:1002D000000040E062E084E00E94E1030000A39699
:1002E0000FB6F894DEBF0FBECDBFDF91CF9108955A
:1002F000CF93DF93CDB7DEB7A3970FB6F894DEBFE9
:100300000FBECDBF8F8741E060E084E00E94E10333
:1003100040E061E084E00E94E1036F8583E00E9499
:10032000EA0441E062E084E00E94E10380E090E0C2
:10033000A0E0B0E489839A83AB83BC8320E030E003
:100340004AEF54E469817A818B819C810E94C506C1
:100350006C8B7D8B8E8B9F8B8C899D89AE89BF89A1
:100360008D839E83AF83B88720E030E040E85FE371
:100370006D817E818F8198850E943F0688232CF4B1
:1003800081E090E09A87898754C020E03FEF4FE7F3
:1003900057E46D817E818F8198850E94C006181672
:1003A000D4F520E030E040E251E469817A818B812C
:1003B0009C810E94C506688F798F8A8F9B8F888D5C
:1003C000998DAA8DBB8D888B998BAA8BBB8B6889E5
:1003D00079898A899B890E9444066C8F7D8F8E8FD4
:1003E0009F8FAC8DBD8DBA87A98710C088EC90E037
:1003F0009C878B878B859C850197F1F79C878B87E2
:10040000000089859A8501979A87898789859A85C9
:10041000892B61F719C06D817E818F8198850E943B
:10042000440668A379A38AA39BA388A199A19A876C
:10043000898789859A859E878D878D859E85019779
:10044000F1F79E878D87000040E062E084E00E9423
:10045000E1030000A3960FB6F894DEBF0FBECDBF38
:10046000DF91CF910895CF93DF93CDB7DEB7A297F9
:100470000FB6F894DEBF0FBECDBF80E090E0A0E2E3
:10048000B2E489839A83AB83BC8320E030E04AEFF7
:1004900054E469817A818B819C810E94C5066B8BB3
:1004A0007C8B8D8B9E8B8B899C89AD89BE898D833E
:1004B0009E83AF83B88720E030E040E85FE36D8142
:1004C0007E818F8198850E943F0688232CF481E0ED
:1004D00090E09A87898754C020E03FEF4FE757E4C8
:1004E0006D817E818F8198850E94C0061816D4F593
:1004F00020E030E040E251E469817A818B819C8187
:100500000E94C5066F8B788F898F9A8F8F89988DFF
:10051000A98DBA8D8F87988BA98BBA8B6F857889B7
:1005200089899A890E9444066B8F7C8F8D8F9E8F5C
:10053000AB8DBC8DBA87A98710C088EC90E09C87F2
:100540008B878B859C850197F1F79C878B870000B3
:1005500089859A8501979A87898789859A85892BC4
:1005600061F719C06D817E818F8198850E94440654
:100570006F8F78A389A39AA38F8D98A19A87898773
:1005800089859A859E878D878D859E850197F1F750
:100590009E878D87000088E30E94BD008CE00E944A
:1005A000BD0081E00E94BD000000A2960FB6F89445
:1005B000DEBF0FBECDBFDF91CF910895CF93DF9304
:1005C00000D00F92CDB7DEB79B838A8319820EC00D
:1005D0008981882F90E02A813B81820F931FFC0143
:1005E00080810E94780189818F5F89838981882F2A
:1005F00090E02A813B81820F931FFC018081882338
:1006000039F7000000000F900F900F90DF91CF910D
:100610000895CF93DF9300D000D0CDB7DEB78B83A2
:100620006C831A828B81882319F48C81898306C09C
:100630008B81813019F48C81805C89838981805819
:100640000E94BD0000000F900F900F900F90DF915F
:10065000CF910895CF93DF9300D000D000D00F92B8
:10066000CDB7DEB79C838B836D834E832F831A8235
:100670008D81880F880F880F8A838A81805C0E9411
:10068000BD0019820EC08981882F90E02B813C81AA
:10069000820F931FFC0180810E94780189818F5F06
:1006A00089838981883078F36F818E810E94090364
:1006B0008D810E94BD00000027960FB6F894DEBF22
:1006C0000FBECDBFDF91CF910895CF93DF9300D0C0
:1006D00000D00F92CDB7DEB76A837B838C839D8376
:1006E00083E089838981282F30E08A819B81AC81D6
:1006F000BD8104C0B695A795979587952A95D2F7A1
:1007000081709927AA27BB27892B8A2B8B2BC9F0AD
:100710008981882F90E09C01215031098A819B8139
:10072000AC81BD8104C0B695A795979587952A950C
:10073000D2F781709927AA27BB27892B8A2B8B2B6D
:1007400079F58981282F30E08A819B81AC81BD8138
:1007500004C0B695A795979587952A95D2F781708D
:100760009927AA27BB27892B8A2B8B2BE9F0898114
:10077000882F90E09C01225031098A819B81AC81B5
:10078000BD8104C0B695A795979587952A95D2F710
:1007900081709927AA27BB27892B8A2B8B2B21F0C5
:1007A00081E30E94780104C080E30E947801000088
:1007B00000000F900F900F900F900F90DF91CF914E
:1007C0000895CF93DF9300D000D0CDB7DEB78A83F2
:1007D0006B834C8319828B81883008F0F1C08C8147
:1007E000813009F071C08A81882F90E084309105B2
:1007F00009F452C0853091050CF064C08330910536
:10080000A9F1843091050CF05DC0009719F00197B3
:10081000B9F058C08BE390E0FC018081482F8B81B8
:10082000282F30E081E090E002C0880F991F2A95C0
:10083000E2F7242F282B8BE390E0FC012083C2C039
:1008400088E390E0FC018081482F8B81282F30E0E5
:1008500081E090E002C0880F991F2A95E2F7242FCB
:10086000282B88E390E0FC012083ACC085E390E076
:10087000FC018081482F8B81282F30E081E090E0BF
:1008800002C0880F991F2A95E2F7242F282B85E3B1
:1008900090E0FC01208396C082E390E0FC0180811F
:1008A000482F8B81282F30E081E090E002C0880F34
:1008B000991F2A95E2F7242F282B82E390E0FC0170
:1008C000208380C019827EC08C81882309F075C086
:1008D0008A81882F90E08430910509F455C08530D5
:1008E00091050CF068C083309105B9F18430910511
:1008F0000CF061C0009719F00197C1F05CC08BE368
:1009000090E0FC018081482F8B81282F30E081E02E
:1009100090E002C0880F991F2A95E2F78095242F56
:1009200028238BE390E0FC0120834CC088E390E017
:10093000FC018081482F8B81282F30E081E090E0FE
:1009400002C0880F991F2A95E2F78095242F28234B
:1009500088E390E0FC01208335C085E390E0FC0152
:100960008081482F8B81282F30E081E090E002C009
:10097000880F991F2A95E2F78095242F282385E375
:1009800090E0FC0120831EC082E390E0FC018081A6
:10099000482F8B81282F30E081E090E002C0880F43
:1009A000991F2A95E2F78095242F282382E390E06F
:1009B000FC01208307C0198205C081E0898302C041
:1009C00081E0898389810F900F900F900F90DF91C4
:1009D000CF910895CF93DF9300D00F92CDB7DEB7BC
:1009E0008A836B8319828A81882F90E084309105F5
:1009F00001F1853091051CF583309105A1F084301B
:100A00009105ECF4009719F0019739F018C08BE3C9
:100A100090E02B81FC01208315C088E390E02B81BE
:100A2000FC0120830FC085E390E02B81FC01208333
:100A300009C082E390E02B81FC01208303C081E0A8
:100A40008983000089810F900F900F90DF91CF91E3
:100A50000895CF93DF9300D000D00F92CDB7DEB7CB
:100A60008A836B835D834C8319828C819D81892B62
:100A700009F473C08B81883008F06FC08A81882F99
:100A800090E08430910509F44FC0853091050CF059
:100A900060C08330910599F1843091050CF059C004
:100AA000009719F00197B1F054C089E390E0FC0180
:100AB0008081882F90E02B81222F30E002C0959515
:100AC00087952A95E2F7282F21708C819D81FC0162
:100AD000208342C086E390E0FC018081882F90E073
:100AE0002B81222F30E002C0959587952A95E2F759
:100AF000282F21708C819D81FC0120832DC083E3F0
:100B000090E0FC018081882F90E02B81222F30E043
:100B100002C0959587952A95E2F7282F21708C8140
:100B20009D81FC01208318C080E390E0FC0180815E
:100B3000882F90E02B81222F30E002C09595879579
:100B40002A95E2F7282F21708C819D81FC0120835A
:100B500003C081E08983000002C081E0898389812C
:100B60000F900F900F900F900F90DF91CF910895FD
:100B7000CF93DF93CDB7DEB78AE390E0FC0110821C
:100B800087E390E0FC01108284E390E02FEFFC010A
:100B9000208381E390E027E0FC0120838BE390E059
:100BA000FC01108288E390E0FC01108285E390E074
:100BB000FC01108282E390E0FC0110820000DF91D2
:100BC000CF910895CF93DF93CDB7DEB72C970FB6B3
:100BD000F894DEBF0FBECDBF0E94B8050E9433025D
:100BE0000E94360080E00E9474009A838983898184
:100BF0009A81AC0160E070E088E893E1DC019A0141
:100C0000AB010E9425066D837E838F8398872D819B
:100C10003E814F815885BB27A52F942F832F9C831E
:100C20008B8360E080E00E9409038B819C819C01A2
:100C300040E050E029873A874B875C8769857A8551
:100C40008B859C850E946503FFCF0E943006A59F7F
:100C5000900DB49F900DA49F800D911D11240895B7
:100C6000A29FB001B39FC001A39F700D811D1124ED
:100C7000911DB29F700D811D1124911D08950E9438
:100C8000730608F481E008950E949F0688F09F573C
:100C900098F0B92F9927B751B0F0E1F0660F771FA0
:100CA000881F991F1AF0BA95C9F714C0B13091F096
:100CB0000E94B906B1E008950C94B906672F782F09
:100CC0008827B85F39F0B93FCCF38695779567955B
:100CD000B395D9F73EF490958095709561957F4FC7
:100CE0008F4F9F4F0895990F0008550FAA0BE0E80A
:100CF000FEEF16161706E807F907C0F012161306DE
:100D0000E407F50798F0621B730B840B950B39F41D
:100D10000A2661F0232B242B252B21F408950A2683
:100D200009F4A140A6958FEF811D811D089557FDFF
:100D30009058440F551F59F05F3F71F04795880F49
:100D400097FB991F61F09F3F79F0879508951216E0
:100D500013061406551FF2CF4695F1DF08C016168C
:100D600017061806991FF1CF86957105610508943D
:100D70000895E894BB2766277727CB0197F9089554
:100D80000E94730608F48FEF08950E94D8060C9411
:100D900049070E943B0738F00E94420720F0952344
:100DA00011F00C9432070C94380711240C94BA06F5
:100DB0000E94970670F3959FC1F3950F50E0551F61
:100DC000629FF001729FBB27F00DB11D639FAA27A0
:100DD000F00DB11DAA1F649F6627B00DA11D661FEF
:100DE000829F2227B00DA11D621F739FB00DA11D10
:100DF000621F839FA00D611D221F749F3327A00DCA
:100E0000611D231F849F600D211D822F762F6A2F65
:100E100011249F5750409AF0F1F088234AF0EE0FCA
:100E2000FF1FBB1F661F771F881F91505040A9F7F7
:100E30009E3F510580F00C9432070C94BA065F3F38
:100E4000E4F3983ED4F3869577956795B795F79533
:100E5000E7959F5FC1F7FE2B880F911D96958795AB
:100E600097F9089597F99F6780E870E060E008952A
:100E70009FEF80EC089500240A94161617061806B2
:100E80000906089500240A9412161306140605068E
:100E90000895092E0394000C11F4882352F0BB0F1F
:100EA00040F4BF2B11F460FF04C06F5F7F4F8F4F82
:080EB0009F4F0895F894FFCF55
:00000001FF
