:100000000C942A000C943F000C943F000C943F0089
:100010000C943F000C943F000C943F000C943F0064
:100020000C943F000C943F000C943F000C943F0054
:100030000C943F000C943F000C943F000C943F0044
:100040000C943F000C943F000C943F000C943F0034
:100050000C943F0011241FBECFE5D8E0DEBFCDBF1A
:1000600010E0A0E6B0E0E0E1FEE002C005900D92F5
:10007000A837B107D9F70E94D5050C9406070C9450
:100080000000CF93DF93CDB7DEB7A3970FB6F894F8
:10009000DEBF0FBECDBF8F8740E060E083E00E94EF
:1000A000650340E061E083E00E9465036F8580E0C6
:1000B0000E946E0441E062E083E00E94650380E0FC
:1000C00090E0A0E0B0E489839A83AB83BC8320E016
:1000D00030E04AE755E469817A818B819C810E94F6
:1000E00071066C8B7D8B8E8B9F8B8C899D89AE89E5
:1000F000BF898D839E83AF83B88720E030E040E8DE
:100100005FE36D817E818F8198850E94EB05882356
:100110002CF481E090E09A87898754C020E03FEF7B
:100120004FE757E46D817E818F8198850E946C0630
:100130001816D4F520E030E040E251E469817A817C
:100140008B819C810E947106688F798F8A8F9B8F2B
:10015000888D998DAA8DBB8D888B998BAA8BBB8B33
:10016000688979898A899B890E94F0056C8F7D8FC7
:100170008E8F9F8FAC8DBD8DBA87A98710C080E907
:1001800091E09C878B878B859C850197F1F79C87F5
:100190008B87000089859A8501979A878987898549
:1001A0009A85892B61F719C06D817E818F81988531
:1001B0000E94F00568A379A38AA39BA388A199A1B3
:1001C0009A87898789859A859E878D878D859E8563
:1001D0000197F1F79E878D87000040E062E083E0A1
:1001E0000E9465030000A3960FB6F894DEBF0FBE11
:1001F000CDBFDF91CF910895CF93DF93CDB7DEB719
:10020000A3970FB6F894DEBF0FBECDBF8F8741E036
:1002100060E083E00E94650340E061E083E00E94CB
:1002200065036F8580E00E946E0441E062E083E038
:100230000E94650380E090E0A0E0B0E489839A83A7
:10024000AB83BC8320E030E04AE755E469817A81E2
:100250008B819C810E9471066C8B7D8B8E8B9F8B1A
:100260008C899D89AE89BF898D839E83AF83B88732
:1002700020E030E040E85FE36D817E818F819885EA
:100280000E94EB0588232CF481E090E09A8789870F
:1002900054C020E03FEF4FE757E46D817E818F81AE
:1002A00098850E946C061816D4F520E030E040E2F4
:1002B00051E469817A818B819C810E947106688FEB
:1002C000798F8A8F9B8F888D998DAA8DBB8D888B16
:1002D000998BAA8BBB8B688979898A899B890E94B3
:1002E000F0056C8F7D8F8E8F9F8FAC8DBD8DBA8703
:1002F000A98710C080E991E09C878B878B859C85BE
:100300000197F1F79C878B87000089859A85019773
:100310009A87898789859A85892B61F719C06D81AC
:100320007E818F8198850E94F00568A379A38AA3B6
:100330009BA388A199A19A87898789859A859E8799
:100340008D878D859E850197F1F79E878D870000AB
:1003500040E062E083E00E9465030000A3960FB6D0
:10036000F894DEBF0FBECDBFDF91CF910895CF933C
:10037000DF93CDB7DEB7A2970FB6F894DEBF0FBEFE
:10038000CDBF80E090E0A0E2B2E489839A83AB83A2
:10039000BC8320E030E04AE755E469817A818B81B3
:1003A0009C810E9471066B8B7C8B8D8B9E8B8B89C5
:1003B0009C89AD89BE898D839E83AF83B88720E0F9
:1003C00030E040E85FE36D817E818F8198850E94F7
:1003D000EB0588232CF481E090E09A87898754C04C
:1003E00020E03FEF4FE757E46D817E818F81988554
:1003F0000E946C061816D4F520E030E040E251E48B
:1004000069817A818B819C810E9471066F8B788FC4
:10041000898F9A8F8F89988DA98DBA8D8F87988BA8
:10042000A98BBA8B6F85788989899A890E94F00592
:100430006B8F7C8F8D8F9E8FAB8DBC8DBA87A9877C
:1004400010C080E991E09C878B878B859C85019704
:10045000F1F79C878B87000089859A8501979A8799
:10046000898789859A85892B61F719C06D817E817D
:100470008F8198850E94F0056F8F78A389A39AA336
:100480008F8D98A19A87898789859A859E878D8780
:100490008D859E850197F1F79E878D87000088E303
:1004A0000E9441008CE00E94410081E00E944100D6
:1004B0000000A2960FB6F894DEBF0FBECDBFDF914D
:1004C000CF910895CF93DF9300D00F92CDB7DEB7D1
:1004D0009B838A8319820EC08981882F90E02A81AC
:1004E0003B81820F931FFC0180810E94FC00898167
:1004F0008F5F89838981882F90E02A813B81820FD9
:10050000931FFC018081882339F7000000000F90C1
:100510000F900F90DF91CF910895CF93DF9300D08C
:1005200000D0CDB7DEB78B836C831A828B81882392
:1005300019F48C81898306C08B81813019F48C81F8
:10054000805C8983898180580E94410000000F905F
:100550000F900F900F90DF91CF910895CF93DF937D
:1005600000D000D000D00F92CDB7DEB79C838B8334
:100570006D834E832F831A828D81880F880F880F99
:100580008A838A81805C0E94410019820EC0898121
:10059000882F90E02B813C81820F931FFC0180818A
:1005A0000E94FC0089818F5F89838981883078F37C
:1005B0006F818E810E948D028D810E94410000001A
:1005C00027960FB6F894DEBF0FBECDBFDF91CF9157
:1005D0000895CF93DF9300D000D00F92CDB7DEB750
:1005E0006A837B838C839D8383E089838981282F21
:1005F00030E08A819B81AC81BD8104C0B695A7950E
:10060000979587952A95D2F781709927AA27BB27B6
:10061000892B8A2B8B2BC9F08981882F90E09C0134
:10062000215031098A819B81AC81BD8104C0B6957E
:10063000A795979587952A95D2F781709927AA272C
:10064000BB27892B8A2B8B2B79F58981282F30E0CA
:100650008A819B81AC81BD8104C0B695A795979591
:1006600087952A95D2F781709927AA27BB27892BCE
:100670008A2B8B2BE9F08981882F90E09C012250F6
:1006800031098A819B81AC81BD8104C0B695A79553
:10069000979587952A95D2F781709927AA27BB2726
:1006A000892B8A2B8B2B21F081E30E94FC0004C054
:1006B00080E30E94FC00000000000F900F900F905C
:1006C0000F900F90DF91CF910895CF93DF9300D0DB
:1006D00000D0CDB7DEB78A836B834C8319828B81C0
:1006E000883008F0F1C08C81813009F071C08A81B6
:1006F000882F90E08430910509F452C0853091052F
:100700000CF064C083309105A9F1843091050CF0A0
:100710005DC0009719F00197B9F058C08BE390E0E5
:10072000FC018081482F8B81282F30E081E090E010
:1007300002C0880F991F2A95E2F7242F282B8BE3FC
:1007400090E0FC012083C2C088E390E0FC0180813E
:10075000482F8B81282F30E081E090E002C0880F85
:10076000991F2A95E2F7242F282B88E390E0FC01BB
:100770002083ACC085E390E0FC018081482F8B8111
:10078000282F30E081E090E002C0880F991F2A9561
:10079000E2F7242F282B85E390E0FC01208396C00C
:1007A00082E390E0FC018081482F8B81282F30E08C
:1007B00081E090E002C0880F991F2A95E2F7242F6C
:1007C000282B82E390E0FC01208380C019827EC048
:1007D0008C81882309F075C08A81882F90E084304D
:1007E000910509F455C0853091050CF068C083303F
:1007F0009105B9F1843091050CF061C0009719F0B2
:100800000197C1F05CC08BE390E0FC018081482F30
:100810008B81282F30E081E090E002C0880F991F83
:100820002A95E2F78095242F28238BE390E0FC01A2
:1008300020834CC088E390E0FC018081482F8B81AD
:10084000282F30E081E090E002C0880F991F2A95A0
:10085000E2F78095242F282388E390E0FC01208391
:1008600035C085E390E0FC018081482F8B81282FE3
:1008700030E081E090E002C0880F991F2A95E2F7EE
:100880008095242F282385E390E0FC0120831EC05F
:1008900082E390E0FC018081482F8B81282F30E09B
:1008A00081E090E002C0880F991F2A95E2F78095B9
:1008B000242F282382E390E0FC01208307C01982C3
:1008C00005C081E0898302C081E0898389810F901E
:1008D0000F900F900F90DF91CF910895CF93DF93FA
:1008E00000D00F92CDB7DEB78A836B8319828A81DD
:1008F000882F90E08430910501F1853091051CF539
:1009000083309105A1F084309105ECF4009719F043
:10091000019739F018C08BE390E02B81FC01208314
:1009200015C088E390E02B81FC0120830FC085E394
:1009300090E02B81FC01208309C082E390E02B81B1
:10094000FC01208303C081E08983000089810F902E
:100950000F900F90DF91CF910895CF93DF9300D048
:1009600000D00F92CDB7DEB78A836B835D834C8353
:1009700019828C819D81892B09F473C08B81883009
:1009800008F06FC08A81882F90E08430910509F4C7
:100990004FC0853091050CF060C08330910599F10E
:1009A000843091050CF059C0009719F00197B1F00F
:1009B00054C089E390E0FC018081882F90E02B8176
:1009C000222F30E002C0959587952A95E2F7282FCF
:1009D00021708C819D81FC01208342C086E390E0E0
:1009E000FC018081882F90E02B81222F30E002C013
:1009F000959587952A95E2F7282F21708C819D8106
:100A0000FC0120832DC083E390E0FC018081882FCE
:100A100090E02B81222F30E002C0959587952A9592
:100A2000E2F7282F21708C819D81FC01208318C062
:100A300080E390E0FC018081882F90E02B81222FC1
:100A400030E002C0959587952A95E2F7282F21700E
:100A50008C819D81FC01208303C081E0898300009B
:100A600002C081E0898389810F900F900F900F90D1
:100A70000F90DF91CF910895CF93DF9300D000D0F6
:100A8000CDB7DEB78FEF8B83198259C08981882F4C
:100A900090E0805A9F4FFC01808140E0682F84E005
:100AA0000E9465031A8239C08A81882F90E08C5990
:100AB0009F4FFC012081CE010496AC01622F84E09F
:100AC0000E94AD048C81882329F58A81282F30E08B
:100AD0008981882F90E0220F331F220F331F820F4E
:100AE000931F88599F4FFC0180818B830EC08A81A0
:100AF000882F90E08C599F4FFC012081CE010496F5
:100B0000AC01622F84E00E94AD048C81882379F3CC
:100B10008B811AC08A818F5F8A838A81843020F218
:100B20008981882F90E0805A9F4FFC01808141E0AD
:100B3000682F84E00E94650389818F5F89838981A2
:100B4000843008F4A3CF8B810F900F900F900F90FB
:100B5000DF91CF910895CF93DF93CDB7DEB78AE3CE
:100B600090E0FC01108287E390E0FC01108284E3B6
:100B700090E0FC01108281E390E02FE0FC012083F3
:100B80008BE390E0FC01108288E390E0FC0110828E
:100B900085E390E0FC01108282E390E02FEFFC01FE
:100BA00020830000DF91CF910895CF93DF930F92C0
:100BB000CDB7DEB78FEF89830E94AB050E94B701E6
:100BC0000E943C05898389818F3FD1F38981805DB3
:100BD0000E94FC00F5CF0E941F0608F481E00895F2
:100BE0000E944B0688F09F5798F0B92F9927B7516C
:100BF000B0F0E1F0660F771F881F991F1AF0BA95C1
:100C0000C9F714C0B13091F00E946506B1E00895B3
:100C10000C946506672F782F8827B85F39F0B93FA5
:100C2000CCF3869577956795B395D9F73EF4909573
:100C30008095709561957F4F8F4F9F4F0895990FC5
:100C40000008550FAA0BE0E8FEEF16161706E80796
:100C5000F907C0F012161306E407F50798F0621BB7
:100C6000730B840B950B39F40A2661F0232B242B8C
:100C7000252B21F408950A2609F4A140A6958FEFAB
:100C8000811D811D089557FD9058440F551F59F03F
:100C90005F3F71F04795880F97FB991F61F09F3F69
:100CA00079F087950895121613061406551FF2CF92
:100CB0004695F1DF08C0161617061806991FF1CFE2
:100CC00086957105610508940895E894BB27662709
:100CD0007727CB0197F908950E941F0608F48FEF3C
:100CE00008950E9484060C94F5060E94E70638F0E9
:100CF0000E94EE0620F0952311F00C94DE060C9471
:100D0000E40611240C9466060E94430670F3959F36
:100D1000C1F3950F50E0551F629FF001729FBB27F2
:100D2000F00DB11D639FAA27F00DB11DAA1F649F8E
:100D30006627B00DA11D661F829F2227B00DA11D41
:100D4000621F739FB00DA11D621F839FA00D611DC7
:100D5000221F749F3327A00D611D231F849F600DE8
:100D6000211D822F762F6A2F11249F5750409AF011
:100D7000F1F088234AF0EE0FFF1FBB1F661F771F9D
:100D8000881F91505040A9F79E3F510580F00C9468
:100D9000DE060C9466065F3FE4F3983ED4F3869536
:100DA00077956795B795F795E7959F5FC1F7FE2B08
:100DB000880F911D9695879597F9089597F99F67E4
:100DC00080E870E060E008959FEF80EC08950024D3
:100DD0000A941616170618060906089500240A94A0
:100DE00012161306140605060895092E0394000C26
:100DF00011F4882352F0BB0F40F4BF2B11F460FFB5
:100E000004C06F5F7F4F8F4F9F4F0895F894FFCFBF
:100E10000001020304050607010508010107060792
:080E200001090A0B050D0E0F7C
:00000001FF
