:100000000C942A000C9434000C9434000C943400AA
:100010000C9434000C9434000C9434000C94340090
:100020000C9434000C9434000C9434000C94340080
:100030000C9434000C9434000C9434000C94340070
:100040000C9434000C9434000C9434000C94340060
:100050000C94340011241FBECFE5D8E0DEBFCDBF25
:100060000E945E000C9463000C940000CF93DF9319
:10007000CDB7DEB78AE390E0FC01108287E390E021
:10008000FC01108284E390E0FC01108281E390E0A7
:10009000FC0110828BE390E0FC01108288E390E089
:1000A000FC01108285E390E0FC01108282E390E085
:1000B000FC0110820000DF91CF910895CF93DF9370
:0A00C000CDB7DEB7FFCFF894FFCFF5
:00000001FF
