:100000000C942A000C943C000C943C000C943C0092
:100010000C943C000C943C000C943C000C943C0070
:100020000C943C000C943C000C943C000C943C0060
:100030000C943C000C943C000C943C000C943C0050
:100040000C943C000C943C000C943C000C943C0040
:100050000C943C0011241FBECFE5D8E0DEBFCDBF1D
:1000600020E0A0E6B0E001C01D92A136B207E1F7A2
:100070000E9461030C9485030C940000CF93DF93DE
:1000800000D000D00F92CDB7DEB78B836C834D8349
:1000900019828C81883008F0F3C08D81882309F0A3
:1000A00076C08B81882F90E08430910509F455C08B
:1000B000853091050CF068C083309105B9F184302A
:1000C00091050CF061C0009719F00197C1F05CC078
:1000D0008AE390E0FC018081482F8C81282F30E05A
:1000E00081E090E002C0880F991F2A95E2F7809581
:1000F000242F28238AE390E0FC012083C3C087E3F8
:1001000090E0FC018081482F8C81282F30E081E035
:1001100090E002C0880F991F2A95E2F78095242F5E
:10012000282387E390E0FC012083ACC084E390E0C7
:10013000FC018081482F8C81282F30E081E090E005
:1001400002C0880F991F2A95E2F78095242F282353
:1001500084E390E0FC01208395C081E390E0FC0102
:100160008081482F8C81282F30E081E090E002C010
:10017000880F991F2A95E2F78095242F282381E381
:1001800090E0FC0120837EC081E089837BC08D816B
:10019000813009F072C08B81882F90E08430910506
:1001A00009F452C0853091050CF064C0833091058C
:1001B000A9F1843091050CF05DC0009719F001970A
:1001C000B9F058C08AE390E0FC018081482F8C810F
:1001D000282F30E081E090E002C0880F991F2A9517
:1001E000E2F7242F282B8AE390E0FC0120834AC009
:1001F00087E390E0FC018081482F8C81282F30E03C
:1002000081E090E002C0880F991F2A95E2F7242F21
:10021000282B87E390E0FC01208334C084E390E046
:10022000FC018081482F8C81282F30E081E090E014
:1002300002C0880F991F2A95E2F7242F282B84E308
:1002400090E0FC0120831EC081E390E0FC018081EE
:10025000482F8C81282F30E081E090E002C0880F89
:10026000991F2A95E2F7242F282B81E390E0FC01C7
:10027000208308C081E0898305C081E0898302C0B2
:1002800081E08A8389810F900F900F900F900F90DB
:10029000DF91CF910895CF93DF9300D00F92CDB728
:1002A000DEB78A836B8319828A81882F90E084303D
:1002B000910501F1853091051CF583309105A1F080
:1002C00084309105ECF4009719F0019739F018C0CB
:1002D0008AE390E02B81FC01208315C087E390E046
:1002E0002B81FC0120830FC084E390E02B81FC0173
:1002F000208309C081E390E02B81FC01208303C0AF
:1003000081E08983000089810F900F900F90DF9129
:10031000CF910895CF93DF9300D000D0CDB7DEB753
:100320008A836B834C8319828B81883008F0F1C0FB
:100330008C81813009F071C08A81882F90E08430EF
:10034000910509F452C0853091050CF064C08330EA
:100350009105A9F1843091050CF05DC0009719F06A
:100360000197B9F058C08BE390E0FC018081482FE1
:100370008B81282F30E081E090E002C0880F991F28
:100380002A95E2F7242F282B8BE390E0FC012083B1
:10039000C2C088E390E0FC018081482F8B81282F28
:1003A00030E081E090E002C0880F991F2A95E2F7C3
:1003B000242F282B88E390E0FC012083ACC085E348
:1003C00090E0FC018081482F8B81282F30E081E074
:1003D00090E002C0880F991F2A95E2F7242F282B5E
:1003E00085E390E0FC01208396C082E390E0FC016D
:1003F0008081482F8B81282F30E081E090E002C07F
:10040000880F991F2A95E2F7242F282B82E390E08A
:10041000FC01208380C019827EC08C81882309F072
:1004200075C08A81882F90E08430910509F455C009
:10043000853091050CF068C083309105B9F18430A6
:1004400091050CF061C0009719F00197C1F05CC0F4
:100450008BE390E0FC018081482F8B81282F30E0D6
:1004600081E090E002C0880F991F2A95E2F78095FD
:10047000242F28238BE390E0FC0120834CC088E3E9
:1004800090E0FC018081482F8B81282F30E081E0B3
:1004900090E002C0880F991F2A95E2F78095242FDB
:1004A000282388E390E0FC01208335C085E390E0B9
:1004B000FC018081482F8B81282F30E081E090E083
:1004C00002C0880F991F2A95E2F78095242F2823D0
:1004D00085E390E0FC0120831EC082E390E0FC01F4
:1004E0008081482F8B81282F30E081E090E002C08E
:1004F000880F991F2A95E2F78095242F282382E3FD
:1005000090E0FC01208307C0198205C081E0898347
:1005100002C081E0898389810F900F900F900F9026
:10052000DF91CF910895CF93DF9300D00F92CDB795
:10053000DEB78A836B8319828A81882F90E08430AA
:10054000910501F1853091051CF583309105A1F0ED
:1005500084309105ECF4009719F0019739F018C038
:100560008BE390E02B81FC01208315C088E390E0B1
:100570002B81FC0120830FC085E390E02B81FC01DF
:10058000208309C082E390E02B81FC01208303C01B
:1005900081E08983000089810F900F900F90DF9197
:1005A000CF910895CF93DF9300D000D00F92CDB7B5
:1005B000DEB78A836B835D834C8319828C819D8136
:1005C000892B09F473C08B81883008F06FC08A8151
:1005D000882F90E08430910509F44FC08530910553
:1005E0000CF060C08330910599F1843091050CF0D6
:1005F00059C0009719F00197B1F054C089E390E019
:10060000FC018081882F90E02B81222F30E002C0F6
:10061000959587952A95E2F7282F21708C819D81E9
:10062000FC01208342C086E390E0FC018081882F9A
:1006300090E02B81222F30E002C0959587952A9576
:10064000E2F7282F21708C819D81FC0120832DC031
:1006500083E390E0FC018081882F90E02B81222FA2
:1006600030E002C0959587952A95E2F7282F2170F2
:100670008C819D81FC01208318C080E390E0FC0107
:100680008081882F90E02B81222F30E002C0959549
:1006900087952A95E2F7282F21708C819D81FC0196
:1006A000208303C081E08983000002C081E0898348
:1006B00089810F900F900F900F900F90DF91CF9145
:1006C0000895CF93DF93CDB7DEB740E061E080E0DF
:1006D0000E943E0041E060E080E00E943E0040E673
:1006E00050E061E080E00E94D202809160008823A7
:1006F00031F441E060E080E00E948A01F0CF40E008
:0E07000060E080E00E948A01EACFF894FFCF0B
:00000001FF
